:020000040000FA
:0400000007EF00F016
:0A0008005282ACED33F06CEF34F0DF
:10080000006042A20DDB0FC940E4CB9640DB0F49EC
:1008100040DB0FC93F269E783EEEE9913E13CECCD9
:100820003EAAAA2A3FD1F717378071313F3C6C3678
:1008300036CF0750B98488083CABAA2ABEA3858866
:1008400032DA0FC93F83F9223F0000003F00004029
:100850004B179ACC373F04B6BA9FAA2A3D00000036
:10086000BFDB0FC940E4CB9640DB0F4940DB0FC92B
:100870003F565F62696173203D20252E3266205607
:1008800000566F6666203D20252E326620560049B0
:100890006E696369616E646F2E2E2E0044326D6145
:1008A00078203D20252E3266004432203D20252E22
:1008B000326600696E66006E616E0046494D00004A
:1008C000CAEC31F03EEC35F018EC37F08F0E126EBA
:1008D000080E136E2FEC34F0CB0E0101F46FEC0E0A
:1008E000F36F840EE82EFED7F32FFCD7F42FFAD740
:1008F00000F0010EC7EC36F064EC33F0000E516EE0
:100900001F0E516486EF04F088EF04F08AEF04F0C4
:10091000B2EF04F05150020D400EF324D96E040ED4
:10092000F420DA6EDECFF3F1DDCFF4F1F3C10DF098
:10093000F4C10EF00F6A106A000EC6EC2EF0515092
:10094000040D800EF324D96E020EF420DA6E0DC071
:10095000DEFF0EC0DEFF0FC0DEFF10C0DEFF512A3B
:1009600080EF04F0000E0001D66F200ED56F800ED0
:10097000D76F020ED86FD8EC2DF0000E516E1F0EFF
:100980005164C5EF04F0C7EF04F0C9EF04F0E4EFE1
:1009900004F05150040D800EF324D96E020EF420A1
:1009A000DA6E5150040D500EF324E16E030EF42064
:1009B000E26EDECFE6FFDECFE6FFDECFE6FFDECF84
:1009C000E6FF512ABFEF04F0000E516E1F0E516476
:1009D000ECEF04F0EEEF04F0F0EF04F018EF05F0A8
:1009E0005150020D000EF324D96E040EF420DA6E7D
:1009F000DECFF3F1DDCFF4F1F3C10DF0F4C10EF071
:100A00000F6A106A000EC6EC2EF05150040D800ED5
:100A1000F324D96E020EF420DA6E0DC0DEFF0EC094
:100A2000DEFF0FC0DEFF10C0DEFF512AE6EF04F04C
:100A3000000E0001D66F200ED56F800ED76F020E0C
:100A4000D86FD8EC2DF0000E516E1F0E51642BEFB5
:100A500005F02DEF05F02FEF05F04AEF05F05150AE
:100A6000040D800EF324D96E020EF420DA6E51507C
:100A7000040D800EF324E16E040EF420E26EDECF4E
:100A8000E6FFDECFE6FFDECFE6FFDECFE6FF512A50
:100A900025EF05F0000E166E200E156E500E176E27
:100AA000030E186E800E196E040E1A6ED5EC2BF024
:100AB000000E0101B26F200EB16F500EB36F030E26
:100AC000B46F800EB56F040EB66F3BEC12F050C3DE
:100AD00000F551C301F552C302F553C303F580C4B9
:100AE00000F681C401F682C402F683C403F6010E47
:100AF000516E1F0E51647FEF05F081EF05F083EF1B
:100B000005F0CFEF05F05150040D500EF324D96ECF
:100B1000030EF420DA6E200E0101F36F000EF46F65
:100B20005150F35F000EF45BD890F337F437D89050
:100B3000F337F437000EF325E16E050EF421E26E73
:100B4000DECFE6FFDECFE6FFDECFE6FFDECFE6FF5D
:100B50005150040D800EF324D96E040EF420DA6E89
:100B6000200EF36F000EF46F5150F35F000EF45B34
:100B7000D890F337F437D890F337F437000EF325D5
:100B8000E16E060EF421E26EDECFE6FFDECFE6FF79
:100B9000DECFE6FFDECFE6FF512A79EF05F0000E4B
:100BA000516E1F0E5164D7EF05F0D9EF05F0DBEF62
:100BB00005F04AEF08F05150040D000EF324D96EF1
:100BC000050EF420DA6EDECF38F0DECF39F0DECF5E
:100BD0003AF0DECF3BF05150040D500EF324D96EA5
:100BE000030EF420DA6EDECF34F0DECF35F0DECF48
:100BF00036F0DECF37F0D8EC1DF034C068F035C0E9
:100C000069F036C06AF037C06BF0000E00016C6FFF
:100C1000000E6D6F000E6E6F400E6F6F95EC24F03E
:100C20005150040D800EF324D96E020EF420DA6EBA
:100C3000000168C0DEFF69C0DEFF6AC0DEFF6BC076
:100C4000DEFF5150040D000EF324D96E060EF42081
:100C5000DA6EDECF64F0DECF65F0DECF66F0DECF99
:100C600067F05150040D800EF324D96E040EF42069
:100C7000DA6EDECF60F0DECF61F0DECF62F0DECF85
:100C800063F0BBEC35F060C068F061C069F062C031
:100C90006AF063C06BF0000E00016C6F000E6D6FA8
:100CA000000E6E6F400E6F6F95EC24F05150040DE6
:100CB000000EF324D96E020EF420DA6E000168C033
:100CC000DEFF69C0DEFF6AC0DEFF6BC0DEFF515091
:100CD000040D800EF324D96E020EF420DA6EDECFFE
:100CE0001FF0DECF20F0DECF21F0DECF22F051501A
:100CF000040D800EF324D96E020EF420DA6EDECFDE
:100D00001BF0DECF1CF0DECF1DF0DECF1EF080EC3E
:100D100022F01BC034F01CC035F01DC036F01EC0E0
:100D200037F05150040D000EF324D96E020EF4205A
:100D3000DA6EDECF1FF0DECF20F0DECF21F0DECF87
:100D400022F05150040D000EF324D96E020EF4204F
:100D5000DA6EDECF1BF0DECF1CF0DECF1DF0DECF73
:100D60001EF080EC22F01BC038F01CC039F01DC012
:100D70003AF01EC03BF0D8EC1DF034C0DCF335C0B7
:100D8000DDF336C0DEF337C0DFF3DCC360F0DDC374
:100D900061F0DEC362F0DFC363F078EC1BF051500A
:100DA000040D800EF324D96E020EF420DA6E0001D9
:100DB00060C0DEFF61C0DEFF62C0DEFF63C0DEFF39
:100DC000000E1F6E000E206EC80E216E420E226EA7
:100DD0005150040D800EF324D96E020EF420DA6E09
:100DE000DECF1BF0DECF1CF0DECF1DF0DECF1EF01D
:100DF00080EC22F01BC0CDF01CC0CEF01DC0CFF0A7
:100E00001EC0D0F045EC30F05150020D400EF324DE
:100E1000D96E040EF420DA6E0001CDC0DEFFCEC024
:100E2000DDFF5150040D000EF324D96E060EF420A0
:100E3000DA6EDECF38F0DECF39F0DECF3AF0DECF3B
:100E40003BF05150040D800EF324D96E040EF420B3
:100E5000DA6EDECF34F0DECF35F0DECF36F0DECF27
:100E600037F0D8EC1DF034C068F035C069F036C0FA
:100E70006AF037C06BF0000E00016C6F000E6D6FF2
:100E8000000E6E6F400E6F6F95EC24F05150040D04
:100E9000800EF324D96E020EF420DA6E000168C0D1
:100EA000DEFF69C0DEFF6AC0DEFF6BC0DEFF5150AF
:100EB000040D500EF324D96E030EF420DA6EDECF4B
:100EC00064F0DECF65F0DECF66F0DECF67F0515024
:100ED000040D000EF324D96E050EF420DA6EDECF79
:100EE00060F0DECF61F0DECF62F0DECF63F0BBEC0E
:100EF00035F060C068F061C069F062C06AF063C03C
:100F00006BF0000E00016C6F000E6D6F000E6E6FC7
:100F1000400E6F6F95EC24F05150040D000EF32439
:100F2000D96E020EF420DA6E000168C0DEFF69C0DF
:100F3000DEFF6AC0DEFF6BC0DEFF5150040D800E85
:100F4000F324D96E020EF420DA6EDECF1FF0DECF6E
:100F500020F0DECF21F0DECF22F05150040D800EC4
:100F6000F324D96E020EF420DA6EDECF1BF0DECF52
:100F70001CF0DECF1DF0DECF1EF080EC22F01BC097
:100F800034F01CC035F01DC036F01EC037F0515093
:100F9000040D000EF324D96E020EF420DA6EDECFBB
:100FA0001FF0DECF20F0DECF21F0DECF22F0515057
:100FB000040D000EF324D96E020EF420DA6EDECF9B
:100FC0001BF0DECF1CF0DECF1DF0DECF1EF080EC7C
:100FD00022F01BC038F01CC039F01DC03AF01EC012
:100FE0003BF0D8EC1DF034C0DCF335C0DDF336C087
:100FF000DEF337C0DFF3DCC360F0DDC361F0DEC3D6
:1010000062F0DFC363F078EC1BF05150040D000E6A
:10101000F324D96E020EF420DA6E000160C0DEFF08
:1010200061C0DEFF62C0DEFF63C0DEFF000E1F6E28
:10103000000E206EC80E216E420E226E5150040D1D
:10104000000EF324D96E020EF420DA6EDECF1BF010
:10105000DECF1CF0DECF1DF0DECF1EF080EC22F0E4
:101060001BC0CDF01CC0CEF01DC0CFF01EC0D0F014
:1010700045EC30F05150020D000EF324D96E040EF1
:10108000F420DA6E0001CDC0DEFFCEC0DDFF512AB4
:10109000D1EF05F0000E0101646F000E656F000EC8
:1010A000666F000E676F000E606F000E616F000EBE
:1010B000626F000E636F140E516E1F0E516463EF6A
:1010C00008F065EF08F067EF08F000EF09F064C181
:1010D00034F065C135F066C136F067C137F0515064
:1010E000020D400EF324D96E040EF420DA6EDECF2A
:1010F000F3F1DDCFF4F1F3C10DF0F4C10EF00F6A9E
:10110000106A000EC6EC2EF00DC038F00EC039F09B
:101110000FC03AF010C03BF0C9EC30F0D8B093EFFC
:1011200008F095EF08F0B2EF08F05150020D400EB4
:10113000F324D96E040EF420DA6EDECFF3F1DDCFA6
:10114000F4F1F3C10DF0F4C10EF00F6A106A000E55
:10115000C6EC2EF00DC064F10EC065F10FC066F153
:1011600010C067F160C134F061C135F062C136F082
:1011700063C137F05150020D000EF324D96E040EF6
:10118000F420DA6EDECFF3F1DDCFF4F1F3C10DF030
:10119000F4C10EF00F6A106A000EC6EC2EF00DC0FE
:1011A00038F00EC039F00FC03AF010C03BF0C9EC77
:1011B00030F0D8B0DEEF08F0E0EF08F0FDEF08F017
:1011C0005150020D000EF324D96E040EF420DA6E95
:1011D000DECFF3F1DDCFF4F1F3C10DF0F4C10EF089
:1011E0000F6A106A000EC6EC2EF00DC060F10EC042
:1011F00061F10FC062F110C063F1512A5DEF08F098
:1012000064C168F065C169F066C16AF067C16BF0DE
:1012100060C16CF061C16DF062C16EF063C16FF0CE
:1012200095EC24F068C0D0F369C0D1F36AC0D2F362
:101230006BC0D3F3D0C381F0D1C382F0D2C383F0AB
:10124000D3C384F096EC0EF081C0D4F382C0D5F302
:1012500083C0D6F384C0D7F3000E0001816F000E67
:10126000826F000E836F400E846F96EC0EF081C08B
:10127000D8F382C0D9F383C0DAF384C0DBF3000E65
:101280001F6E000E206E7A0E216E440E226ED4C3A5
:101290001BF0D5C31CF0D6C31DF0D7C31EF080ECE5
:1012A00022F01BC068F01CC069F01DC06AF01EC0AF
:1012B0006BF0D8C36CF0D9C36DF0DAC36EF0DBC34A
:1012C0006FF095EC24F0000E0101F36F010EF46F46
:1012D000D8907035D96E7135DA6ED890D936DA3645
:1012E000F351D926F451DA22000168C0DEFF69C04B
:1012F000DEFF6AC0DEFF6BC0DEFF63EC26F07CEF32
:1013000004F007EF00F0000E0101AC6FD7C0ADF1A3
:10131000D8C0AEF1D9C0AFF1DAC0B0F1B0BF95EF2F
:1013200009F093EF09F0A9EF09F0010EAC6FADC120
:1013300081F0AEC182F0AFC183F0B0C184F061EC46
:1013400036F081C0ADF182C0AEF183C0AFF184C090
:10135000B0F1000E0101B26F000EB16F4AC09CF1F6
:101360004BC09DF1AC51D8B4B8EF09F0BAEF09F019
:10137000CEEF09F0AC51D8A4C0EF09F0C2EF09F0EC
:10138000C8EF09F0000E926F2B0E916FCCEF09F0B1
:10139000000E926F2D0E916F91C1ACF1ADC10DF0A9
:1013A000AEC10EF0AFC10FF0B0C110F04BEC31F098
:1013B0000D040E10D8A4DFEF09F0E1EF09F014EFEF
:1013C0000AF00101AC51D8B4E8EF09F0EAEF09F0F6
:1013D000F3EF09F0ACC180F59C07D8A09D07000E83
:1013E000B26F010EB16F800EB1250D6E050EB221E8
:1013F0000E6EB30E0F6E080E106E24EC36F0010167
:10140000FD0E9C27FF0E9D23D5C01DF0D6C01EF0FB
:10141000800E1F6E050E206E9CC121F09DC122F032
:10142000F2EC33F095EF0EF0ADC10DF0AEC10EF061
:10143000AFC10FF0B0C110F04BEC31F00D500E10F9
:10144000D8A425EF0AF027EF0AF047EF0AF00101D0
:10145000AC51D8B42EEF0AF030EF0AF039EF0AF0B1
:10146000ACC180F59C07D8A09D07000EB26F010E9D
:10147000B16F800EB1250D6E050EB2210E6EB70E46
:101480000F6E080E106E24EC36F0FFEF09F0000E20
:101490000101B36F000EB46F800EB56F3F0EB66FD3
:1014A000000E9B6F000E9A6FADC10DF0AEC10EF035
:1014B000AFC10FF0B0C110F0000E116E000E126E31
:1014C000000E136E000E146E0FEC33F0D8B06BEFFD
:1014D0000AF06DEF0AF04DEF0BF07AEF0AF09EC1C3
:1014E000B3F19FC1B4F1A0C1B5F1A1C1B6F1010141
:1014F0009A4B9B2BB3C11BF0B4C11CF0B5C11DF0BE
:10150000B6C11EF0000E1F6E000E206E200E216E62
:10151000410E226E80EC22F01BC09EF11CC09FF198
:101520001DC0A0F11EC0A1F101019E51AD5D0D6E67
:101530009F51AE590E6EA051AF590F6EA151B059C7
:10154000106EDEEC34F010BEB1EF0AF010500F1048
:101550000E1009E1020E0D5CD8A0B1EF0AF0B3EF56
:101560000AF06FEF0AF09EC134F09FC135F0A0C1C0
:1015700036F0A1C137F0ADC138F0AEC139F0AFC11E
:101580003AF0B0C13BF0C9EC30F0D8A0CAEF0AF095
:10159000CCEF0AF06FEF0AF00101B351AD5D0D6EB3
:1015A000B451AE590E6EB551AF590F6EB651B05918
:1015B000106EDEEC34F010BEEBEF0AF010500F109E
:1015C0000E1007E1020E0D5CD8B0E9EF0AF0EBEF68
:1015D0000AF034EF0BF0B3C1ADF1B4C1AEF1B5C157
:1015E000AFF1B6C1B0F14DEF0BF0B3C168F0B4C1CB
:1015F00069F0B5C16AF0B6C16BF0000E00016C6F06
:10160000000E6D6F200E6E6F410E6F6F95EC24F023
:1016100068C0B3F169C0B4F16AC0B5F16BC0B6F18E
:1016200001019A07D8A09B07B351AD5D0D6EB4516F
:10163000AE590E6EB551AF590F6EB651B059106E0E
:10164000DEEC34F010BE32EF0BF010500F100E1025
:1016500007E1020E0D5CD8B030EF0BF032EF0BF06B
:1016600034EF0BF0EBEF0AF0ADC134F0AEC135F062
:10167000AFC136F0B0C137F0B3C138F0B4C139F002
:10168000B5C13AF0B6C13BF0C9EC30F0D8A04BEF91
:101690000BF04DEF0BF0F5EF0AF0DBC094F194C1C5
:1016A00095F14DBE56EF0BF058EF0BF05EEF0BF0DF
:1016B0004CC08DF14DC08EF163EF0BF0000E0101B7
:1016C0008E6F060E8D6F8DC198F18EC199F101015B
:1016D000984B992B660E9519D8A471EF0BF073EF08
:1016E0000BF093EF0BF09BBF7AEF0BF078EF0BF062
:1016F00086EF0BF0000EB36F000EB46F800EB56F67
:101700003F0EB66F000E9B6F000E9A6F670E941916
:10171000D8B48DEF0BF08FEF0BF093EF0BF09A51E5
:1017200098279B519923000EA36F000EA26FADC1A5
:10173000A4F1AEC1A5F1AFC1A6F1B0C1A7F1B3C18B
:101740009EF1B4C19FF1B5C1A0F1B6C1A1F125EFE1
:101750000CF0A4C168F0A5C169F0A6C16AF0A7C1E8
:101760006BF0B3C16CF0B4C16DF0B5C16EF0B6C131
:101770006FF095EC24F068C081F069C082F06AC017
:1017800083F06BC084F0CAEC2AF081C0A8F182C05B
:10179000A9F183C0AAF184C0ABF1A8C1CDF0A9C161
:1017A000CEF0AAC1CFF0ABC1D0F045EC30F0CDC047
:1017B00096F1CEC097F1A4C160F0A5C161F0A6C1B9
:1017C00062F0A7C163F0A8C11FF0A9C120F0AAC1AF
:1017D00021F0ABC122F0B3C11BF0B4C11CF0B5C104
:1017E0001DF0B6C11EF080EC22F01BC064F01CC0DE
:1017F00065F01DC066F01EC067F0BBEC35F060C040
:10180000A4F161C0A5F162C0A6F163C0A7F1B3C1A4
:1018100068F0B4C169F0B5C16AF0B6C16BF0000EF2
:1018200000016C6F000E6D6F200E6E6F410E6F6FBA
:1018300095EC24F068C0B3F169C0B4F16AC0B5F1A9
:101840006BC0B6F10101A24BA32B9851A25DA3512D
:10185000800A0001DC6F01019951800A0001DC5906
:10186000D8A035EF0CF037EF0CF0A9EF0BF0B3C1B7
:101870001BF0B4C11CF0B5C11DF0B6C11EF0000EC6
:101880001F6E000E206EA00E216E400E226E80ECA8
:1018900022F01BC0A8F11CC0A9F11DC0AAF11EC0F6
:1018A000ABF1A4C134F0A5C135F0A6C136F0A7C193
:1018B00037F0A8C138F0A9C139F0AAC13AF0ABC1DC
:1018C0003BF0C9EC30F0D8B068EF0CF06AEF0CF0E8
:1018D00075EF0CF0000E0101A86F000EA96F000E4D
:1018E000AA6F000EAB6F9EEF0CF0A4C10DF0A5C166
:1018F0000EF0A6C10FF0A7C110F0A8C111F0A9C148
:1019000012F0AAC113F0ABC114F00FEC33F0D8A061
:101910008CEF0CF08EEF0CF09EEF0CF0010196B105
:1019200094EF0CF096EF0CF09EEF0CF0000EA86F09
:10193000000EA96F000EAA6F000EAB6FADC134F0A0
:10194000AEC135F0AFC136F0B0C137F0A8C138F044
:10195000A9C139F0AAC13AF0ABC13BF0D8EC1DF0F7
:1019600034C0A4F135C0A5F136C0A6F137C0A7F147
:10197000A4C134F0A5C135F0A6C136F0A7C137F037
:10198000000E1F6E000E206E200E216E410E226E84
:101990009EC11BF09FC11CF0A0C11DF0A1C11EF093
:1019A00080EC22F01BC038F01CC039F01DC03AF0AA
:1019B0001EC03BF0C9EC30F0D8A0E1EF0CF0E3EF33
:1019C0000CF00CEF0DF001019A4B9B2B9EC11BF00C
:1019D0009FC11CF0A0C11DF0A1C11EF0000E1F6E22
:1019E000000E206E200E216E410E226E80EC22F041
:1019F0001BC09EF11CC09FF11DC0A0F11EC0A1F133
:101A0000660E01019519D8A408EF0DF00AEF0DF04C
:101A10000CEF0DF0984B992B9EC1B3F19FC1B4F11F
:101A2000A0C1B5F1A1C1B6F19AC18BF19BC18CF1F6
:101A3000000E0101936F000E906F000E8F6F000E6D
:101A4000A36F000EA26F0CEF0EF0A4C168F0A5C149
:101A500069F0A6C16AF0A7C16BF0B3C16CF0B4C164
:101A60006DF0B5C16EF0B6C16FF095EC24F068C0B2
:101A700081F069C082F06AC083F06BC084F0CAEC68
:101A80002AF081C0A8F182C0A9F183C0AAF184C064
:101A9000ABF1A8C1CDF0A9C1CEF0AAC1CFF0ABC1C6
:101AA000D0F045EC30F00001CEBF62EF0DF0CE512A
:101AB00007E10A0ECD5DD8B060EF0DF062EF0DF0DA
:101AC00072EF0DF0A8C1CDF0A9C1CEF0AAC1CFF040
:101AD000ABC1D0F045EC30F0CDC096F1CEC097F15F
:101AE00077EF0DF0000E0101976F090E966F01015F
:101AF0009351D8A47EEF0DF080EF0DF0A8EF0DF01C
:101B00008CBF87EF0DF085EF0DF0A8EF0DF0800E84
:101B1000B125D96E050EB221DA6E2E0EDF6EB14BF5
:101B2000B22B9C07D8A09D07010E936FA8EF0DF074
:101B3000800EB125D96E050EB221DA6E300EDF6E41
:101B4000B14BB22B9C07D8A09D078F07D8A0900758
:101B50008F519011D8A4AFEF0DF0B1EF0DF098EFC9
:101B60000DF0800EB125D96E050EB221DA6E9651B8
:101B7000300FDF6EB14BB22B9C07D8A09D07A4C1DC
:101B800060F0A5C161F0A6C162F0A7C163F0A8C171
:101B90001FF0A9C120F0AAC121F0ABC122F0B3C14E
:101BA0001BF0B4C11CF0B5C11DF0B6C11EF080EC35
:101BB00022F01BC064F01CC065F01DC066F01EC0A2
:101BC00067F0BBEC35F060C0A4F161C0A5F162C064
:101BD000A6F163C0A7F1B3C168F0B4C169F0B5C1A3
:101BE0006AF0B6C16BF0000E00016C6F000E6D6FF5
:101BF000200E6E6F410E6F6F95EC24F068C0B3F14C
:101C000069C0B4F16AC0B5F16BC0B6F101018B07D0
:101C1000D8A08C07A24BA32B9851A25DA351800A98
:101C20000001DC6F01019951800A0001DC59D8B034
:101C30001CEF0EF01EEF0EF02DEF0EF00101B2BF03
:101C40002BEF0EF0B25109E14B0EB15DD8A02BEF96
:101C50000EF02DEF0EF025EF0DF0000E0101A36F39
:101C60004F0EA26F800EA225D96E050EA321DA6E4B
:101C7000000EDF6E800E0001DC6F050EDD6F0101CE
:101C8000B1510001DC5F0101B2510001DD5B0101D6
:101C9000A2510001DC250D6E0101A3510001DD21DF
:101CA0000E6E800E0F6E050E106EB1C111F0B2C136
:101CB00012F093EC35F00101B151A25DB16FB25158
:101CC000A359B26FAC51D8A468EF0EF06BEF0EF0D1
:101CD000010E6CEF0EF0000EA26FA36BAC51D8B4E6
:101CE00074EF0EF076EF0EF081EF0EF0B107D8A092
:101CF000B207800EB125D96E050EB221DA6EACC1E5
:101D0000DFFFA2519C5FA3519D5BD5C01DF0D6C0E3
:101D10001EF0800EB1251F6E050EB221206E9CC1F3
:101D200021F09DC122F0F2EC33F0120058C1C1F055
:101D300059C1C2F05AC1C3F05BC1C4F081C0C1F047
:101D400082C0C2F083C0C3F084C0C4F0C1C0C9F077
:101D5000C2C0CAF0C3C0CBF0C4C0CCF0000E0001BA
:101D6000A86F000EA76FCC5109E1800ECB5DD8A003
:101D7000BCEF0EF0BEEF0EF0DCEF0EF0C9C085F048
:101D8000CAC086F0CBC087F0CCC088F0200ECEEF62
:101D90000EF0D8908833873386338533E82EC9EF29
:101DA0000EF08551861187118811D8B4DAEF0EF044
:101DB000DCEF0EF09FEF0FF0D890C935856FCA3574
:101DC000866FCB35876FCC35886F8551861187112B
:101DD0008811D8A4EEEF0EF0F0EF0EF01EEF0FF02A
:101DE000000E686F000E696F800E6A6FBF0E6B6F1A
:101DF00081C01FF082C020F083C021F084C022F097
:101E000081C01BF082C01CF083C01DF084C01EF096
:101E100080EC22F01BC06CF01CC06DF01DC06EF099
:101E20001EC06FF095EC24F068C081F069C082F0AC
:101E30006AC083F06BC084F03AEF12F0C9C085F03D
:101E4000CAC086F0CBC087F0CCC088F0200E2EEF41
:101E50000FF0D8908833873386338533E82E29EF07
:101E60000FF08551861187118811D8B43AEF0FF021
:101E70003CEF0FF06FEF0FF0000E4F6E210E4E6E25
:101E800081C064F082C065F083C066F084C067F0F2
:101E900081C060F082C061F083C062F084C063F0F2
:101EA000BBEC35F060C068F061C069F062C06AF0F8
:101EB00063C06BF0000E00016C6F000E6D6F000EC2
:101EC0006E6F000E6F6F95EC24F068C081F069C0F2
:101ED00082F06AC083F06BC084F03AEF12F0E70E34
:101EE000A727FF0EA82381C01BF082C01CF083C06F
:101EF0001DF084C01EF0000E1F6E000E206E000E3E
:101F0000216E4C0E226E80EC22F01BC081F01CC0B2
:101F100082F01DC083F01EC084F081C0C1F082C079
:101F2000C2F083C0C3F084C0C4F0C1C0C9F0C2C055
:101F3000CAF0C3C0CBF0C4C0CCF0CCEF0FF0800E21
:101F4000CB5D7F0ECC59D8A0A8EF0FF0AAEF0FF011
:101F5000B4EF0FF081C081F082C082F083C083F0C3
:101F600084C084F03AEF12F0800ECB1909E13F0EE5
:101F7000CC19C911CA11D8A4C0EF0FF0C2EF0FF0ED
:101F8000CCEF0FF0000E816F000E826F000E836F9A
:101F9000000E846F3AEF12F00D0E0001C927FB0E00
:101FA000CA234A0ECB23000ECC23C9C085F0CAC079
:101FB00086F0CBC087F0CCC088F0180EE5EF0FF0AC
:101FC000D8908833873386338533E82EE0EF0FF0DF
:101FD000810E8525896FFF0E86218A6F8951A7277B
:101FE0008A51A823FF0EC915856FFF0ECA15866F8B
:101FF0007F0ECB15876F000ECC15886FF30E8525ED
:10200000C96F040E8621CA6F350E8721CB6F3F0E34
:102010008821CC6FC9C0C1F0CAC0C2F0CBC0C3F028
:10202000CCC0C4F0C1C081F0C2C082F0C3C083F094
:10203000C4C084F081C034F082C035F083C036F073
:1020400084C037F0000E386E000E396E800E3A6E86
:10205000BF0E3B6ED8EC1DF034C0C5F035C0C6F0E5
:1020600036C0C7F037C0C8F0C5C068F0C6C069F058
:10207000C7C06AF0C8C06BF0000E386E000E396E33
:10208000000E3A6E400E3B6EC5C034F0C6C035F04F
:10209000C7C036F0C8C037F0D8EC1DF034C06CF0C3
:1020A00035C06DF036C06EF037C06FF095EC24F09F
:1020B00068C0B1F069C0B2F06AC0B3F06BC0B4F0F0
:1020C000B1C01BF0B2C01CF0B3C01DF0B4C01EF014
:1020D000B1C01FF0B2C020F0B3C021F0B4C022F0F4
:1020E00080EC22F01BC0B5F01CC0B6F01DC0B7F0EC
:1020F0001EC0B8F0B5C01BF0B6C01CF0B7C01DF0D4
:10210000B8C01EF0B5C01FF0B6C020F0B7C021F0B7
:10211000B8C022F080EC22F01BC0B9F01CC0BAF0AD
:102120001DC0BBF01EC0BCF0130E386ECE0E396E53
:10213000CC0E3A6E3E0E3B6E260E1F6E9E0E206E2D
:10214000780E216E3E0E226EB9C01BF0BAC01CF094
:10215000BBC01DF0BCC01EF080EC22F01BC034F0F0
:102160001CC035F01DC036F01EC037F0D8EC1DF095
:1021700034C0BDF035C0BEF036C0BFF037C0C0F0CF
:10218000BDC01BF0BEC01CF0BFC01DF0C0C01EF023
:10219000B9C01FF0BAC020F0BBC021F0BCC022F013
:1021A00080EC22F01BC08FF01CC090F01DC091F09D
:1021B0001EC092F0AA0E386EAA0E396E2A0E3A6E22
:1021C0003F0E3B6EEE0E1F6EE90E206E910E216EDD
:1021D0003E0E226EB9C01BF0BAC01CF0BBC01DF091
:1021E000BCC01EF080EC22F01BC034F01CC035F0E7
:1021F0001DC036F01EC037F0D8EC1DF034C0BDF065
:1022000035C0BEF036C0BFF037C0C0F0BDC01BF057
:10221000BEC01CF0BFC01DF0C0C01EF0B5C01FF096
:10222000B6C020F0B7C021F0B8C022F080EC22F098
:102230001BC093F01CC094F01DC095F01EC096F01A
:1022400093C034F094C035F095C036F096C037F0A6
:102250008FC038F090C039F091C03AF092C03BF096
:10226000D8EC1DF034C08BF035C08CF036C08DF04A
:1022700037C08EF0000E1F6E000E206E000E216E15
:102280003F0E226EC5C01BF0C6C01CF0C7C01DF0BB
:10229000C8C01EF080EC22F01BC0BDF01CC0BEF018
:1022A0001DC0BFF01EC0C0F0BDC01BF0BEC01CF002
:1022B000BFC01DF0C0C01EF0C5C01FF0C6C020F0DA
:1022C000C7C021F0C8C022F080EC22F01BC0A9F0EA
:1022D0001CC0AAF01DC0ABF01EC0ACF0A7C00DF032
:1022E000A8C00EF0000E0EBEFF0E0F6E106E010E97
:1022F000C6EC2EF00DC0ADF00EC0AEF00FC0AFF0CA
:1023000010C0B0F0B1C01FF0B2C020F0B3C021F0D7
:10231000B4C022F08BC038F08CC039F08DC03AF0D8
:102320008EC03BF0A9C034F0AAC035F0ABC036F087
:10233000ACC037F0D8EC1DF034C01BF035C01CF039
:1023400036C01DF037C01EF080EC22F01BC097F0A5
:102350001CC098F01DC099F01EC09AF0D10E1F6EDF
:10236000F70E206E170E216E370E226EADC01BF0D9
:10237000AEC01CF0AFC01DF0B0C01EF080EC22F06B
:102380001BC038F01CC039F01DC03AF01EC03BF035
:1023900097C034F098C035F099C036F09AC037F045
:1023A000D8EC1DF034C09BF035C09CF036C09DF0D9
:1023B00037C09EF0A9C064F0AAC065F0ABC066F05B
:1023C000ACC067F09BC060F09CC061F09DC062F043
:1023D0009EC063F0BBEC35F060C09FF061C0A0F020
:1023E00062C0A1F063C0A2F0C5C038F0C6C039F029
:1023F000C7C03AF0C8C03BF09FC034F0A0C035F071
:10240000A1C036F0A2C037F0D8EC1DF034C0A3F064
:1024100035C0A4F036C0A5F037C0A6F0A3C034F094
:10242000A4C035F0A5C036F0A6C037F0800E1F6EF0
:10243000710E206E310E216E3F0E226EADC01BF06C
:10244000AEC01CF0AFC01DF0B0C01EF080EC22F09A
:102450001BC038F01CC039F01DC03AF01EC03BF064
:10246000D8EC1DF034C081F035C082F036C083F066
:1024700037C084F01200B1C10DF0B2C10EF0000EF1
:102480000EBEFF0E0F6E106E010EC6EC2EF00DC0CC
:10249000B7F10EC0B8F10FC0B9F110C0BAF1000E1B
:1024A0000001816F000E826F000E836F400E846FFB
:1024B00096EC0EF081C0BBF182C0BCF183C0BDF1CF
:1024C00084C0BEF1B7C181F0B8C182F0B9C183F058
:1024D000BAC184F096EC0EF081C0BFF182C0C0F1A9
:1024E00083C0C1F184C0C2F1BBC16CF0BCC16DF04E
:1024F000BDC16EF0BEC16FF0BFC168F0C0C169F070
:10250000C1C16AF0C2C16BF095EC24F068C0CDF097
:1025100069C0CEF06AC0CFF06BC0D0F045EC30F0AF
:10252000CDC0CFF1CEC0D0F1000E0101DE6F010EA3
:10253000DD6FB7EF15F0000E0101F06F010EEF6FC8
:10254000000EE46F000EE36FAEEF12F0D8900101C1
:10255000EF35EF6FF035F06FE34BE42BDD51E35DCA
:10256000E451800A0001FD6F0101DE51800A000183
:10257000FD59D8A0BEEF12F0C0EF12F0A6EF12F096
:10258000000E0101DF6F000EE06F800EE16F3F0E65
:10259000E26F000EE96F000EEA6F000EEB6F000EA7
:1025A000EC6FDB0E0001686F0F0E696FC90E6A6F6A
:1025B000400E6B6FEFC10DF0F0C10EF0000E0EBEBD
:1025C000FF0E0F6E106E010EC6EC2EF00DC06CF0FB
:1025D0000EC06DF00FC06EF010C06FF095EC24F0DF
:1025E00068C0C3F169C0C4F16AC0C5F16BC0C6F16F
:1025F000C3C18BF1C4C18CF1C5C18DF1C6C18EF1CF
:10260000A9EC18F08BC1D5F18CC1D6F18DC1D7F1F1
:102610008EC1D8F1EFC10DF0F0C10EF0000E0EBE6C
:10262000FF0E0F6E106E010EC6EC2EF00DC06CF09A
:102630000EC06DF00FC06EF010C06FF0DB0E000129
:10264000686F0F0E696FC90E6A6F400E6B6F95EC65
:1026500024F068C0C7F169C0C8F16AC0C9F16BC095
:10266000CAF1C7C18BF1C8C18CF1C9C18DF1CAC112
:102670008EF1CAEC15F08BC1CBF18CC1CCF18DC1C0
:10268000CDF18EC1CEF1CBC181F0CCC182F0CDC1F4
:1026900083F0CEC184F061EC36F081C0D9F182C004
:1026A000DAF183C0DBF184C0DCF1000E0101E46FDC
:1026B000000EE36F99EF15F0E3C1F1F1E4C1F2F11F
:1026C000F7EF14F0EFC10DF0F0C10EF0000E106E38
:1026D000020E0F6EADEC32F00101F1510D24ED6FE1
:1026E000F2510E20EE6FDFC11FF0E0C120F0E1C11A
:1026F00021F0E2C122F0D890ED35D96EEE35DA6ED8
:10270000D890D936DA36B351D926B451DA22DECF91
:102710001BF0DECF1CF0DECF1DF0DECF1EF080EC14
:1027200022F01BC060F01CC061F01DC062F01EC032
:1027300063F0E9C11FF0EAC120F0EBC121F0ECC168
:1027400022F0D8900101ED35D96EEE35DA6ED890D1
:10275000D936DA36B551D926B651DA22DECF1BF09A
:10276000DECF1CF0DECF1DF0DECF1EF080EC22F0BD
:102770001BC064F01CC065F01DC066F01EC067F091
:10278000BBEC35F060C0E5F161C0E6F162C0E7F195
:1027900063C0E8F1E9C11FF0EAC120F0EBC121F00C
:1027A000ECC122F0D8900101ED35D96EEE35DA6E2C
:1027B000D890D936DA36B351D926B451DA22DECFE1
:1027C0001BF0DECF1CF0DECF1DF0DECF1EF080EC64
:1027D00022F01BC034F01CC035F01DC036F01EC006
:1027E00037F0DFC11FF0E0C120F0E1C121F0E2C10C
:1027F00022F0D8900101ED35D96EEE35DA6ED89021
:10280000D936DA36B551D926B651DA22DECF1BF0E9
:10281000DECF1CF0DECF1DF0DECF1EF080EC22F00C
:102820001BC038F01CC039F01DC03AF01EC03BF090
:10283000D8EC1DF034C0D1F135C0D2F136C0D3F19F
:1028400037C0D4F1D8900101F135D96EF235DA6E86
:10285000D890D936DA36B351D926B451DA22DECF40
:1028600060F0DECF61F0DECF62F0DECF63F0E5C175
:1028700064F0E6C165F0E7C166F0E8C167F0BBEC63
:1028800035F0D8900101ED35D96EEE35DA6ED8907D
:10289000D936DA36B351D926B451DA22000160C0F4
:1028A000DEFF61C0DEFF62C0DEFF63C0DEFFD890E6
:1028B0000101F135D96EF235DA6ED890D936DA36B3
:1028C000B551D926B651DA22DECF60F0DECF61F005
:1028D000DECF62F0DECF63F0D1C164F0D2C165F02B
:1028E000D3C166F0D4C167F0BBEC35F0D8900101DC
:1028F000ED35D96EEE35DA6ED890D936DA36B55177
:10290000D926B651DA22000160C0DEFF61C0DEFFC9
:1029100062C0DEFF63C0DEFFD8900101F135D96EE1
:10292000F235DA6ED890D936DA36B351D926B451A9
:10293000DA22DECF34F0DECF35F0DECF36F0DECF78
:1029400037F0E5C138F0E6C139F0E7C13AF0E8C147
:102950003BF0D8EC1DF0D8900101F135D96EF2357D
:10296000DA6ED890D936DA36B351D926B451DA2294
:1029700034C0DEFF35C0DEFF36C0DEFF37C0DEFF0D
:10298000D890F135D96EF235DA6ED890D936DA367C
:10299000B551D926B651DA22DECF34F0DECF35F08C
:1029A000DECF36F0DECF37F0D1C138F0D2C139F00A
:1029B000D3C13AF0D4C13BF0D8EC1DF0D89001015E
:1029C000F135D96EF235DA6ED890D936DA36B5519E
:1029D000D926B651DA2234C0DEFF35C0DEFF36C05C
:1029E000DEFF37C0DEFFEF51F127F051F223FF0E7B
:1029F0000101B1250001FD6FFF0E0101B2210001AF
:102A0000FE6FFD510101F15DF251800A0001FF6F7F
:102A1000FE51800AFF59D8A010EF15F012EF15F003
:102A200062EF13F0DFC1E5F1E0C1E6F1E1C1E7F1EA
:102A3000E2C1E8F1D5C11FF0D6C120F0D7C121F025
:102A4000D8C122F0E5C11BF0E6C11CF0E7C11DF0C2
:102A5000E8C11EF080EC22F01BC060F01CC061F0E9
:102A60001DC062F01EC063F0D9C11FF0DAC120F0B2
:102A7000DBC121F0DCC122F0E9C11BF0EAC11CF08E
:102A8000EBC11DF0ECC11EF080EC22F01BC064F025
:102A90001CC065F01DC066F01EC067F0BBEC35F0D1
:102AA00060C0DFF161C0E0F162C0E1F163C0E2F15A
:102AB000D9C11FF0DAC120F0DBC121F0DCC122F066
:102AC000E5C11BF0E6C11CF0E7C11DF0E8C11EF036
:102AD00080EC22F01BC034F01CC035F01DC036F075
:102AE0001EC037F0D5C11FF0D6C120F0D7C121F0EC
:102AF000D8C122F0E9C11BF0EAC11CF0EBC11DF006
:102B0000ECC11EF080EC22F01BC038F01CC039F084
:102B10001DC03AF01EC03BF0D8EC1DF034C0E9F106
:102B200035C0EAF136C0EBF137C0ECF10101E34BFF
:102B3000E42BEFC10DF0F0C10EF0000E106E020E8E
:102B40000F6EADEC32F00D500101E35DE451800AEF
:102B50000001FD6F0E50800AFD59D8A0B2EF15F0AC
:102B6000B4EF15F05CEF13F00101DD4BDE2BDD510E
:102B7000CF5DD051800A0001FD6F0101DE51800A56
:102B80000001FD59D8B0C7EF15F0C9EF15F09BEF64
:102B900012F012008BC197F18CC198F18DC199F19F
:102BA0008EC19AF197C1ADF198C1AEF199C1AFF163
:102BB0009AC1B0F1ADC18FF1AEC190F1AFC191F149
:102BC000B0C192F1200EEBEF15F00101D8909233D5
:102BD000913390338F33E82EE5EF15F08FC1A3F1D9
:102BE00090C1A4F1B09FDB0EAD5D0F0EAE59490E42
:102BF000AF593F0EB059D8B000EF16F002EF16F003
:102C00002BEF16F0800EAF5D390EB059D8B00BEF38
:102C100016F00DEF16F017EF16F08BC18BF18CC18B
:102C20008CF18DC18DF18EC18EF1A8EF18F08BC1A2
:102C300085F08CC186F08DC187F08EC188F0B1EC33
:102C400029F085C08BF186C08CF187C08DF188C0DA
:102C50008EF1A8EF18F0D20EAD5D530EAE597B0E7B
:102C6000AF59400EB059D8B038EF16F03AEF16F021
:102C70001FEF17F0E40EAD5DCB0EAE59160EAF5937
:102C8000400EB059D8B047EF16F049EF16F0B8EF44
:102C900016F0A351A411D8B450EF16F052EF16F06D
:102CA0008AEF16F0DB0E386E0F0E396EC90E3A6ED3
:102CB0003F0E3B6E8BC134F08CC135F08DC136F0C8
:102CC0008EC137F0D8EC1DF034C0A5F135C0A6F1A7
:102CD00036C0A7F137C0A8F1A5C160F0A6C161F068
:102CE000A7C162F0A8C163F0D9EC2CF060C081F0FC
:102CF00061C082F062C083F063C084F061EC36F0A2
:102D000081C08BF182C08CF183C08DF184C08EF1C3
:102D1000A8EF18F08BC134F08CC135F08DC136F0BE
:102D20008EC137F0DB0E386E0F0E396EC90E3A6E5B
:102D3000BF0E3B6ED8EC1DF034C0A5F135C0A6F136
:102D400036C0A7F137C0A8F1A5C160F0A6C161F0F7
:102D5000A7C162F0A8C163F0D9EC2CF060C08BF180
:102D600061C08CF162C08DF163C08EF1A8EF18F0E4
:102D7000A351A411D8A4BFEF16F0C1EF16F0E7EFEE
:102D800016F0DB0E386E0F0E396E490E3A6EC00E1D
:102D90003B6E8BC134F08CC135F08DC136F08EC1E5
:102DA00037F0D8EC1DF034C081F035C082F036C069
:102DB00083F037C084F061EC36F081C09BF182C0B3
:102DC0009CF183C09DF184C09EF10BEF17F0DB0EE8
:102DD000386E0F0E396E490E3A6E400E3B6E8BC147
:102DE00034F08CC135F08DC136F08EC137F0D8EC9F
:102DF0001DF034C081F035C082F036C083F037C09A
:102E000084F061EC36F081C09BF182C09CF183C0FC
:102E10009DF184C09EF19BC185F09CC186F09DC14F
:102E200087F09EC188F0B1EC29F085C08BF186C097
:102E30008CF187C08DF188C08EF1A8EF18F0D60E06
:102E4000AD5D310EAE59E20EAF59400EB059D8B05B
:102E50002CEF17F02EEF17F0D1EF17F0E00EAD5D6D
:102E6000ED0EAE59AF0EAF59400EB059D8B03BEF92
:102E700017F03DEF17F07EEF17F0A351A411D8B46F
:102E800044EF17F046EF17F062EF17F08BC134F004
:102E90008CC135F08DC136F08EC137F0E40E386E3E
:102EA000CB0E396E960E3A6E400E3B6ED8EC1DF08E
:102EB00034C0A5F135C0A6F136C0A7F137C0A8F1DE
:102EC000A4EF16F0E40E386ECB0E396E960E3A6E05
:102ED000C00E3B6E8BC134F08CC135F08DC136F025
:102EE0008EC137F0D8EC1DF034C0A5F135C0A6F185
:102EF00036C0A7F137C0A8F16CEF16F0A351A411AA
:102F0000D8A485EF17F087EF17F0A3EF17F08BC168
:102F100034F08CC135F08DC136F08EC137F0DB0E48
:102F2000386E0F0E396EC90E3A6EC00E3B6ED8EC7D
:102F30001DF034C09FF135C0A0F136C0A1F137C0FB
:102F4000A2F1BDEF17F08BC134F08CC135F08DC10B
:102F500036F08EC137F0DB0E386E0F0E396EC90EAB
:102F60003A6E400E3B6ED8EC1DF034C09FF135C078
:102F7000A0F136C0A1F137C0A2F19FC185F0A0C178
:102F800086F0A1C187F0A2C188F0B1EC29F085C01C
:102F90008BF186C08CF187C08DF188C08EF1A8EFCF
:102FA00018F0800EAF5D7F0EB059D8A0DAEF17F0A1
:102FB000DCEF17F0F8EF17F08BC160F08CC161F017
:102FC0008DC162F08EC163F08BC164F08CC165F07D
:102FD0008DC166F08EC167F0BBEC35F060C08BF13F
:102FE00061C08CF162C08DF163C08EF1A8EF18F062
:102FF0008BC1D5F08CC1D6F08DC1D7F08EC1D8F081
:10300000A90E0001D96F010EDA6F38EC20F0000133
:10301000D5C093F1D6C094F10101000E94BFFF0E0C
:10302000956F966F78EF18F0A9C185F0AAC186F068
:10303000ABC187F0ACC188F0B1EC29F085C08BF151
:1030400086C08CF187C08DF188C08EF1A8EF18F092
:10305000A9C160F0AAC161F0ABC162F0ACC163F07C
:10306000D9EC2CF060C08BF161C08CF162C08DF1A5
:1030700063C08EF1A8EF18F0A9C181F0AAC182F057
:10308000ABC183F0ACC184F061EC36F081C085F057
:1030900082C086F083C087F084C088F0B1EC29F04C
:1030A00085C08BF186C08CF187C08DF188C08EF110
:1030B000A8EF18F0A9C160F0AAC161F0ABC162F03D
:1030C000ACC163F0D9EC2CF060C081F061C082F03B
:1030D00062C083F063C084F061EC36F081C08BF194
:1030E00082C08CF183C08DF184C08EF1A8EF18F0FE
:1030F000030E93158F6F000E9415906F000E9515AB
:10310000916F000E9615926F9251000AD8B4A1EFFC
:1031100018F05AEF18F09051000AD8B492EF18F056
:103120005AEF18F08F51000AD8B414EF18F0010AC2
:10313000D8B428EF18F0030AD8B43CEF18F05AEFCF
:1031400018F09151000AD8B48BEF18F05AEF18F02C
:1031500012008BC197F18CC198F18DC199F18EC18C
:103160009AF197C1ADF198C1AEF199C1AFF19AC191
:10317000B0F1ADC18FF1AEC190F1AFC191F1B0C16D
:1031800092F1200ECAEF18F00101D89092339133DA
:1031900090338F33E82EC4EF18F08FC1A7F190C1A0
:1031A000A8F1B09FDB0EAD5D0F0EAE59490EAF59C1
:1031B0003F0EB059D8B0DFEF18F0E1EF18F00AEF8A
:1031C00019F0800EAF5D390EB059D8B0EAEF18F0A3
:1031D000ECEF18F0F6EF18F0000E8B6F000E8C6F0E
:1031E000800E8D6F3F0E8E6F77EF1BF08BC160F0FE
:1031F0008CC161F08DC162F08EC163F0D9EC2CF00E
:1032000060C08BF161C08CF162C08DF163C08EF142
:1032100077EF1BF0D20EAD5D530EAE597B0EAF595A
:10322000400EB059D8B017EF19F019EF19F0E3EFCD
:1032300019F0E40EAD5DCB0EAE59160EAF59400E2F
:10324000B059D8A026EF19F028EF19F085EF19F042
:10325000A751A811D8A42FEF19F031EF19F04DEFB5
:1032600019F08BC134F08CC135F08DC136F08EC1B0
:1032700037F0DB0E386E0F0E396E490E3A6EC00E07
:103280003B6ED8EC1DF034C09BF135C09CF136C0CC
:103290009DF137C09EF167EF19F08BC134F08CC1FE
:1032A00035F08DC136F08EC137F0DB0E386E0F0E63
:1032B000396E490E3A6E400E3B6ED8EC1DF034C0AC
:1032C0009BF135C09CF136C09DF137C09EF19BC18A
:1032D00060F09CC161F09DC162F09EC163F0D9ECC9
:1032E0002CF060C081F061C082F062C083F063C0E6
:1032F00084F061EC36F081C08BF182C08CF183C028
:103300008DF184C08EF177EF1BF0A751A811D8B4CE
:103310008CEF19F08EEF19F0BCEF19F08BC134F07F
:103320008CC135F08DC136F08EC137F0DB0E386EB2
:103330000F0E396EC90E3A6E3F0E3B6ED8EC1DF083
:1033400034C0A3F135C0A4F136C0A5F137C0A6F151
:10335000A3C185F0A4C186F0A5C187F0A6C188F0FD
:10336000B1EC29F085C08BF186C08CF187C08DF15E
:1033700088C08EF177EF1BF0DB0E0001606F0F0E3F
:10338000616FC90E626F3F0E636F8BC164F08CC1B9
:1033900065F08DC166F08EC167F0BBEC35F060C0A2
:1033A00085F061C086F062C087F063C088F0B1EC40
:1033B00029F085C08BF186C08CF187C08DF188C063
:1033C0008EF177EF1BF0D60EAD5D310EAE59E20EE9
:1033D000AF59400EB059D8B0F0EF19F0F2EF19F034
:1033E000A0EF1AF0E00EAD5DED0EAE59AF0EAF5985
:1033F000400EB059D8A0FFEF19F001EF1AF054EFCA
:103400001AF0A751A811D8A408EF1AF00AEF1AF081
:1034100026EF1AF08BC134F08CC135F08DC136F037
:103420008EC137F0DB0E386E0F0E396EC90E3A6E54
:10343000C00E3B6ED8EC1DF034C09FF135C0A0F13A
:1034400036C0A1F137C0A2F140EF1AF08BC134F0C1
:103450008CC135F08DC136F08EC137F0DB0E386E81
:103460000F0E396EC90E3A6E400E3B6ED8EC1DF051
:1034700034C09FF135C0A0F136C0A1F137C0A2F130
:103480009FC160F0A0C161F0A1C162F0A2C163F070
:10349000D9EC2CF060C08BF161C08CF162C08DF171
:1034A00063C08EF177EF1BF0A751A811D8B45BEF82
:1034B0001AF05DEF1AF084EF1AF0E40E0001606F6D
:1034C000CB0E616F960E626FC00E636F8BC164F09E
:1034D0008CC165F08DC166F08EC167F0BBEC35F034
:1034E00060C085F061C086F062C087F063C088F07C
:1034F000B1EC29F085C08BF186C08CF187C08DF1CD
:1035000088C08EF177EF1BF08BC134F08CC135F0A1
:103510008DC136F08EC137F0E40E386ECB0E396EA9
:10352000960E3A6EC00E3B6ED8EC1DF034C0A3F17F
:1035300035C0A4F136C0A5F137C0A6F1A8EF19F047
:10354000800EAF5D7F0EB059D8A0A9EF1AF0ABEF97
:103550001AF0C7EF1AF08BC160F08CC161F08DC119
:1035600062F08EC163F08BC164F08CC165F08DC1D7
:1035700066F08EC167F0BBEC35F060C08BF161C0C6
:103580008CF162C08DF163C08EF177EF1BF08BC1BF
:10359000D5F08CC1D6F08DC1D7F08EC1D8F0A90E70
:1035A0000001D96F010EDA6F38EC20F00001D5C0B0
:1035B00093F1D6C094F10101000E94BFFF0E956FF8
:1035C000966F47EF1BF0A9C160F0AAC161F0ABC1D3
:1035D00062F0ACC163F0D9EC2CF060C08BF161C03B
:1035E0008CF162C08DF163C08EF177EF1BF0A9C141
:1035F00081F0AAC182F0ABC183F0ACC184F061EC70
:1036000036F081C085F082C086F083C087F084C028
:1036100088F0B1EC29F085C08BF186C08CF187C0B1
:103620008DF188C08EF177EF1BF0A9C160F0AAC1BF
:1036300061F0ABC162F0ACC163F0D9EC2CF060C0BA
:1036400081F061C082F062C083F063C084F061ECFD
:1036500036F081C08BF182C08CF183C08DF184C0C3
:103660008EF177EF1BF0A9C185F0AAC186F0ABC13E
:1036700087F0ACC188F0B1EC29F085C08BF186C031
:103680008CF187C08DF188C08EF177EF1BF0030EAF
:1036900093158F6F000E9415906F000E9515916F16
:1036A000000E9615926F9251000AD8B470EF1BF07D
:1036B00033EF1BF09051000AD8B461EF1BF033EFE9
:1036C0001BF08F51000AD8B4E3EF1AF0010AD8B406
:1036D000F7EF1AF0030AD8B415EF1BF033EF1BF025
:1036E0009151000AD8B45AEF1BF033EF1BF01200CF
:1036F00060C071F061C072F062C073F063C074F0BA
:1037000071C089F072C08AF073C08BF074C08CF005
:10371000000E00018915646F000E8A15656F800E1A
:103720008B15666F7F0E8C15676F800E661909E129
:103730007F0E671964116511D8A4A1EF1BF0A3EFE8
:103740001BF0D1EF1BF060C01FF061C020F062C021
:1037500021F063C022F060C01BF061C01CF062C0A9
:103760001DF063C01EF080EC22F01BC034F01CC0C2
:1037700035F01DC036F01EC037F060C038F061C0B3
:1037800039F062C03AF063C03BF0D8EC1DF034C0B1
:1037900060F035C061F036C062F037C063F0D7EF3B
:1037A0001DF08CBFE0EF1BF08C518B118A1106E1EC
:1037B0008905D8B0DEEF1BF0E0EF1BF01CEF1CF02A
:1037C000FF0E8915646FFF0E8A15656FFF0E8B154E
:1037D000666F7F0E8C15676F6451651166116711F6
:1037E000D8A4F5EF1BF0F7EF1BF001EF1CF060C061
:1037F00060F061C061F062C062F063C063F0D7EF57
:103800001DF08CBF08EF1CF006EF1CF01CEF1CF045
:10381000000E4F6E210E4E6E9B0E0D6E080E0E6E3C
:1038200007EC37F00DC060F00EC061F00FC062F021
:1038300010C063F0D7EF1DF0170E646F89C065F0FC
:103840008AC066F08BC067F08CC068F064672BEFAD
:103850001CF033EF1CF0683568336733663365332B
:10386000642F26EF1CF065C081F066C082F067C04F
:1038700083F068C084F000018151821183118411AA
:10388000D8A445EF1CF047EF1CF077EF1CF0000EBA
:103890006D6F000E6E6F000E6F6F000E706F5CEF3D
:1038A0001CF0D89089378A378B378C37010E6D27FB
:1038B000000E6E236F2370238BAF61EF1CF063EF5C
:1038C0001CF051EF1CF0FF0E6D25646FFF0E6E2192
:1038D000656FFF0E6F21666FFF0E7021676F645179
:1038E000815F6551825B6651835B6751845B810EAA
:1038F0008127FF0E8223FF0E8323FF0E8423FF0EFA
:103900008915646FFF0E8A15656F7F0E8B15666FC4
:10391000000E8C15676F000E6411896F000E651123
:103920008A6F800E66118B6F000E67118C6F81A1FC
:103930009CEF1CF09EEF1CF0A6EF1CF0895189272C
:103940008A518A238B518B238C518C238435843369
:10395000833382338133895189278A518A238B515A
:103960008B238C518C23000E696F000E6A6F000E42
:103970006B6F000E6C6F69C075F06AC076F06BC03B
:1039800077F06CC078F0000E856F000E866F000E29
:10399000876F010E886F15EF1DF069518525796FCE
:1039A0006A5186217A6F6B5187217B6F6C51882118
:1039B0007C6F7951895D7A518A597B518B598C5131
:1039C000800A646F7C51800A6459D8A0EAEF1CF029
:1039D000ECEF1CF008EF1DF079518525696F7A51E5
:1039E00086216A6F7B5187216B6F7C5188216C6FB8
:1039F0007951895F7A518A5B7B518B5B7C518C5BFF
:103A000085517527865176238751772388517823EE
:103A1000895189278A518A238B518B238C518C237E
:103A2000D890883387338633853385518611871143
:103A30008811D8A41EEF1DF020EF1DF0CDEF1CF073
:103A400089518A118B118C11D8B429EF1DF02BEFFD
:103A50001DF08CEF1DF0000E7D6F000E7E6F800E4E
:103A60007F6F3F0E806F7DC034F07EC035F07FC029
:103A700036F080C037F0000E386E000E396E800EC2
:103A80003A6E3F0E3B6EC9EC30F0D8A04AEF1DF005
:103A90004CEF1DF08CEF1DF0000E00017D6F000E4D
:103AA0007E6F800E7F6F3F0E806F000E346E000EB3
:103AB000356E800E366E3F0E376E7DC038F07EC09C
:103AC00039F07FC03AF080C03BF0C9EC30F0D8B09C
:103AD0006CEF1DF06EEF1DF077EF1DF0020E000190
:103AE0007527000E7623772378238CEF1DF0010EC7
:103AF00000017515646F000E7615656F000E771561
:103B0000666F000E7815676F6451752765517623CF
:103B1000665177236751782375C064F076C065F0ED
:103B200077C066F078C067F00001673567336633A9
:103B300065336433000E6425896F000E65218A6F3A
:103B4000000E66218B6F3F0E67218C6F81C064F081
:103B500082C065F083C066F084C067F0170ED8900D
:103B60006437653766376737E82EAFEF1DF064516D
:103B7000892765518A2366518B2367518C2389C01D
:103B800071F08AC072F08BC073F08CC074F071C099
:103B90007DF072C07EF073C07FF074C080F07DC095
:103BA00060F07EC061F07FC062F080C063F0120000
:103BB0003750800B406E37503724426E36AEE3EFFD
:103BC0001DF0E5EF1DF0E6EF1DF042804250D8B445
:103BD000ECEF1DF0EEEF1DF003EF1EF04228D8A42D
:103BE000F4EF1DF0F6EF1DF0FEEF1DF0000E346E49
:103BF000000E356E000E366E000E376E368E000EDD
:103C0000376E0BEF1EF0000E346E000E356E000E98
:103C1000366E000E376E3B50800B416E405041189F
:103C2000D8B415EF1EF017EF1EF018EF1EF0408C01
:103C30003B503B24416E3AAE20EF1EF022EF1EF0C7
:103C400023EF1EF041804150D8B429EF1EF02BEF36
:103C50001EF040EF1EF04128D8A431EF1EF033EFE4
:103C60001EF03BEF1EF0000E386E000E396E000E97
:103C70003A6E000E3B6E3A8E000E3B6E48EF1EF021
:103C8000000E386E000E396E000E3A6E000E3B6E5E
:103C90004250415CD8B04FEF1EF051EF1EF078EF6C
:103CA0001EF040AC56EF1EF058EF1EF05AEF1EF01B
:103CB000800E401A42C043F041C042F043C041F080
:103CC00034C043F038C034F043C038F035C043F05E
:103CD00039C035F043C039F036C043F03AC036F051
:103CE00043C03AF037C043F03BC037F043C03BF02D
:103CF000000E436E425041C03CF03D6A3C5E000EF7
:103D00003D5A3DBE8DEF1EF03D5009E11A0E3C5C60
:103D1000D8A08DEF1EF08FEF1EF0C6EF1EF03450CE
:103D2000351036103710D8A498EF1EF09BEF1EF018
:103D3000010E9CEF1EF0000E436E000E346E000E5E
:103D4000356E000E366E000E376E41C042F0CFEF7A
:103D50001EF043A0AEEF1EF0B0EF1EF0B6EF1EF067
:103D6000D89043300109436EB8EF1EF0D89043322B
:103D700034A0BDEF1EF0BFEF1EF0C0EF1EF0438E6B
:103D800037343732363235323432422A4150425C8F
:103D9000D8A0CDEF1EF0CFEF1EF0A9EF1EF040BC73
:103DA000D4EF1EF0D6EF1EF016EF1FF04250D8A44D
:103DB000DCEF1EF0DEEF1EF0E8EF1EF0000E346EBA
:103DC000000E356E000E366E000E376E37EF20F0A7
:103DD00038503426395035223A5036223B5037225B
:103DE00037A0F5EF1EF0F7EF1EF0A3EF1FF043A092
:103DF000FCEF1EF0FEEF1EF004EF1FF0D8904330F2
:103E00000109436E06EF1FF0D890433234A00BEF48
:103E10001FF00DEF1FF00EEF1FF0438E37343732D7
:103E2000363235323432422AA3EF1FF03850345C38
:103E3000395035583A5036583750800A3C6E3B500E
:103E4000800A3C58D8B027EF1FF029EF1FF054EF3D
:103E50001FF03450385C3C6E355039583D6E36504A
:103E60003A583E6E37503B583F6EFF0E3C24346E3E
:103E7000FF0E3D20356EFF0E3E20366EFF0E3F20BA
:103E8000376E800E401A436C4350D8A44AEF1FF09F
:103E90004CEF1FF05CEF1FF0010E3426000E3522B0
:103EA000362237225CEF1FF03850345E3950355AD5
:103EB0003A50365A3B50375A345035103610371076
:103EC000D8A465EF1FF067EF1FF09CEF1FF0435081
:103ED000D8A46DEF1FF06FEF1FF09CEF1FF0000EE6
:103EE000346E000E356E000E366E000E376E37EFF4
:103EF00020F0D890343635363636373643AE83EF39
:103F00001FF085EF1FF086EF1FF0348043A08BEF8A
:103F10001FF08DEF1FF091EF1FF0D880433693EF25
:103F20001FF0D89043364250D8B499EF1FF09BEF62
:103F30001FF09CEF1FF0420636AEA1EF1FF0A3EF7B
:103F40001FF079EF1FF0000E416E43AEAAEF1FF095
:103F5000ACEF1FF0C4EF1FF043C03CF07F0E3C16E7
:103F6000D8B4B5EF1FF0B7EF1FF0BBEF1FF0010E95
:103F7000416EC4EF1FF034A0C0EF1FF0C2EF1FF07E
:103F8000C4EF1FF0B7EF1FF04150D8B4CAEF1FF0D5
:103F9000CCEF1FF0F7EF1FF0010E3426000E352294
:103FA0003622372237A0D7EF1FF0D9EF1FF0F7EFF7
:103FB0001FF034C03CF035C03DF036C03EF037C095
:103FC0003FF03F343F323E323D323C323CC034F071
:103FD0003DC035F03EC036F03FC037F04228D8B47F
:103FE000F4EF1FF0F6EF1FF0F7EF1FF0422A422820
:103FF000D8B4FDEF1FF0FFEF1FF007EF20F04250A5
:10400000D8A405EF20F007EF20F019EF20F0000E04
:10401000346E000E356E000E366E000E376E425056
:10402000D8A415EF20F017EF20F019EF20F0000EC4
:10403000406E42A01EEF20F020EF20F023EF20F092
:10404000368E24EF20F0369ED8904230376E40AE48
:104050002CEF20F02EEF20F02FEF20F0378E34C021
:1040600034F035C035F036C036F037C037F01200C6
:1040700046C0E9F047C0EAF048C0EBF049C0ECF0B8
:10408000D5C0E9F0D6C0EAF0D7C0EBF0D8C0ECF06C
:10409000E9C0DBF0EAC0DCF0EBC0DDF0ECC0DEF044
:1040A000200E59EF20F00001D890DE33DD33DC33F1
:1040B000DB33E82E53EF20F0DBC0E7F0DCC0E8F0A4
:1040C000FF0EE915E36FFF0EEA15E46FFF0EEB1527
:1040D000E56F7F0EEC15E66F800EE55D7F0EE6590D
:1040E000D8A075EF20F077EF20F09CEF20F0D5C03E
:1040F00060F0D6C061F0D7C062F0D8C063F0D5C020
:1041000064F0D6C065F0D7C066F0D8C067F0BBECED
:1041100035F0D9C0D9FFDAC0DAFF000160C0DEFF98
:1041200061C0DEFF62C0DEFF63C0DEFF000ED66F3F
:10413000000ED56F7FEF22F0DB0EE35D0F0EE4592A
:10414000C90EE5594D0EE659D8B0A9EF20F0ABEFF6
:1041500020F09BEF21F0D5C00DF0D6C00EF0D7C0F7
:104160000FF0D8C010F07EEC36F00DC0F5F00EC0A8
:10417000F6F00FC0F7F010C0F8F0000E386E000E29
:10418000396E000E3A6E3F0E3B6E830E1F6EF90EB7
:10419000206E220E216E3F0E226EF5C01BF0F6C07F
:1041A0001CF0F7C01DF0F8C01EF080EC22F01BC020
:1041B00034F01CC035F01DC036F01EC037F0D8EC0E
:1041C0001DF034C0CDF035C0CEF036C0CFF037C0D2
:1041D000D0F045EC30F0CDC0F9F0CEC0FAF0CFC051
:1041E000FBF0D0C0FCF0F9C00DF0FAC00EF0FBC03F
:1041F0000FF0FCC010F0010EC6EC2EF00DC0F1F077
:104200000EC0F2F00FC0F3F010C0F4F0DA0E1F6E23
:104210000F0E206EC90E216E3F0E226EF1C01BF0F4
:10422000F2C01CF0F3C01DF0F4C01EF080EC22F0D0
:104230001BC064F01CC065F01DC066F01EC067F0B6
:10424000F5C060F0F6C061F0F7C062F0F8C063F04E
:10425000BBEC35F060C0EDF061C0EEF062C0EFF095
:1042600063C0F0F0EDC060F0EEC061F0EFC062F04E
:10427000F0C063F0A30E1F6E850E206E880E216EB7
:10428000320E226EF1C01BF0F2C01CF0F3C01DF024
:10429000F4C01EF080EC22F01BC064F01CC065F07E
:1042A0001DC066F01EC067F0BBEC35F0D9C0D9FF69
:1042B000DAC0DAFF000160C0DEFF61C0DEFF62C06D
:1042C000DEFF63C0DEFFE751E811D8B46AEF21F0EA
:1042D0006CEF21F095EF21F0D9C0D9FFDAC0DAFFF9
:1042E000DECF81F0DECF82F0DECF83F0DECF84F050
:1042F00061EC36F0D9C0D9FFDAC0DAFF000181C025
:10430000DEFF82C0DEFF83C0DEFF84C0DEFFF9C0B7
:10431000DBF0FAC0DCF0DB1FDC1FDB4BDC2BDBC08F
:10432000D5F0DCC0D6F07FEF22F0F9C0D5F0FAC0AE
:10433000D6F07FEF22F0D5C00DF0D6C00EF0D7C07A
:104340000FF0D8C010F07EEC36F00DC0F5F00EC0C6
:10435000F6F00FC0F7F010C0F8F0000E386E000E47
:10436000396E000E3A6E3F0E3B6E830E1F6EF90ED5
:10437000206E220E216E3F0E226EF5C01BF0F6C09D
:104380001CF0F7C01DF0F8C01EF080EC22F01BC03E
:1043900034F01CC035F01DC036F01EC037F0D8EC2C
:1043A0001DF034C0CDF035C0CEF036C0CFF037C0F0
:1043B000D0F045EC30F0CDC0F9F0CEC0FAF0CFC06F
:1043C000FBF0D0C0FCF0F9C00DF0FAC00EF0FBC05D
:1043D0000FF0FCC010F0010EC6EC2EF00DC0F1F095
:1043E0000EC0F2F00FC0F3F010C0F4F0DA0E1F6E42
:1043F0000F0E206EC90E216E3F0E226EF1C01BF013
:10440000F2C01CF0F3C01DF0F4C01EF080EC22F0EE
:104410001BC064F01CC065F01DC066F01EC067F0D4
:10442000F5C060F0F6C061F0F7C062F0F8C063F06C
:10443000BBEC35F060C0EDF061C0EEF062C0EFF0B3
:1044400063C0F0F0EDC060F0EEC061F0EFC062F06C
:10445000F0C063F0A30E1F6E850E206E880E216ED5
:10446000320E226EF1C01BF0F2C01CF0F3C01DF042
:10447000F4C01EF080EC22F01BC064F01CC065F09C
:104480001DC066F01EC067F0BBEC35F060C0DFF009
:1044900061C0E0F062C0E1F063C0E2F00001E7510A
:1044A000E811D8B456EF22F058EF22F071EF22F065
:1044B000DFC081F0E0C082F0E1C083F0E2C084F0B0
:1044C00061EC36F0D9C0D9FFDAC0DAFF000181C053
:1044D000DEFF82C0DEFF83C0DEFF84C0DEFF87EF29
:1044E00021F0D9C0D9FFDAC0DAFFDFC0DEFFE0C0BB
:1044F000DEFFE1C0DEFFE2C0DEFF95EF21F012003B
:104500001E50800B276E1E501E242D6E1DAE8BEF8D
:1045100022F08DEF22F08EEF22F02D802D50D8B4B6
:1045200094EF22F096EF22F0A9EF22F02D28D8A4E4
:104530009CEF22F09EEF22F0A6EF22F0000E1B6E01
:10454000000E1C6E000E1D6E000E1E6E1D8EB1EF55
:1045500022F0000E1B6E000E1C6E000E1D6E000E73
:104560001E6E2250800B271A22502224286E21AE64
:10457000BCEF22F0BEEF22F0BFEF22F028802850DF
:10458000D8B4C5EF22F0C7EF22F0DAEF22F02828E6
:10459000D8A4CDEF22F0CFEF22F0D7EF22F0000E1B
:1045A0001F6E000E206E000E216E000E226E218EF8
:1045B000E2EF22F0000E1F6E000E206E000E216E44
:1045C000000E226E2850D8B4E8EF22F0EAEF22F075
:1045D000F2EF22F02D50D8A4F0EF22F0F2EF22F00B
:1045E000FCEF22F0000E1B6E000E1C6E000E1D6E06
:1045F000000E1E6E94EF24F021501B02F3CF32F018
:10460000F4CF33F03250296E2A6A2B6A2C6A335069
:104610002E6E2F6A306A316A20501C02F3CF32F0BE
:10462000F4CF33F032502926000E2A222B222C22DE
:1046300033502E26000E2F22302231221F501D0211
:10464000F3CF32F0F4CF33F032502926000E2A2275
:104650002B222C2233502E26000E2F2230223122E4
:104660002BC02CF02AC02BF029C02AF0296A1F5039
:104670001C02F3CF32F0F4CF33F0325029263350FE
:104680002A22000E2B22000E2C2220501B02F3CFD8
:1046900032F0F4CF33F03250292633502A22000E64
:1046A0002B22000E2C222BC02CF02AC02BF029C06C
:1046B0002AF0296A1F501B02F3CF32F0F4CF33F0F7
:1046C0003250292633502A22000E2B22000E2C2293
:1046D00021501C02F3CF32F0F4CF33F032502E26AB
:1046E00033502F22000E3022000E312220501D02A6
:1046F000F3CF32F0F4CF33F032502E2633502F2246
:10470000000E3022000E312221501D02F3CF32F074
:10471000F4CF33F03250236E3350246E256A266A6C
:1047200025C026F024C025F023C024F0236A23509E
:104730002E2624502F22255030222650312229C0E7
:1047400023F02AC024F02BC025F02CC026F0190E2F
:10475000AFEF23F0D8902632253224322332E82ED0
:10476000AAEF23F023502E2624502F22255030224A
:10477000265031222BC02CF02AC02BF029C02AF061
:10478000296A28502DC023F0246A2326000E2422F3
:10479000820E2324326EFF0E2420336EE5EF23F0C9
:1047A000D8902E362F36303631362CAEDAEF23F055
:1047B000DCEF23F0DDEF23F02E80D89029362A3667
:1047C0002B362C363206D8A0330630AEEAEF23F073
:1047D000ECEF23F0D0EF23F0000E286E2CAEF3EFB9
:1047E00023F0F5EF23F019EF24F0FF0E2914236EC8
:1047F000FF0E2A14246EFF0E2B14256E7F0E2C1430
:10480000266E2350241025102610D8B40AEF24F069
:104810000CEF24F010EF24F0010E286E19EF24F0B5
:104820002EA015EF24F017EF24F019EF24F00CEF71
:1048300024F02850D8B41FEF24F021EF24F045EFE6
:1048400024F0010E2E26000E2F223022312231A01C
:104850002CEF24F02EEF24F045EF24F02EC023F0AF
:104860002FC024F030C025F031C026F02634263287
:1048700025322432233223C02EF024C02FF025C04D
:1048800030F026C031F0324A332A33BE50EF24F0E4
:10489000335008E13228D8A050EF24F052EF24F032
:1048A0005CEF24F0000E2E6E000E2F6E800E306E28
:1048B0007F0E316E8AEF24F033BE69EF24F033505F
:1048C00006E13204D8B067EF24F069EF24F075EF09
:1048D00024F0000E2E6E000E2F6E000E306E000EB5
:1048E000316E000E276E8AEF24F032C02DF0FF0EDD
:1048F0002E16FF0E2F167F0E3016000E31162DA02D
:1049000084EF24F086EF24F087EF24F0308ED890E7
:104910002D30316E275031122EC01BF02FC01CF0ED
:1049200030C01DF031C01EF0120000016B51800B31
:10493000786F6B516B257F6F6AAFA1EF24F0A3EF07
:1049400024F0A4EF24F07F817F51D8B4AAEF24F0A3
:10495000ACEF24F0C1EF24F07F29D8A4B2EF24F00B
:10496000B4EF24F0BCEF24F0000E686F000E696F06
:10497000000E6A6F000E6B6F6A8F000E6B6FC9EFCF
:1049800024F0000E686F000E696F000E6A6F000E53
:104990006B6F6F51800B781B6F516F25806F6EAFFF
:1049A000D4EF24F0D6EF24F0D7EF24F080818051AB
:1049B000D8B4DDEF24F0DFEF24F0F4EF24F0802909
:1049C000D8A4E5EF24F0E7EF24F0EFEF24F0000E99
:1049D0006C6F000E6D6F000E6E6F000E6F6F6E8F3E
:1049E000000E6F6FFCEF24F0000E6C6F000E6D6F09
:1049F000000E6E6F000E6F6F6C516D116E116F11A6
:104A0000D8A405EF25F007EF25F01FEF25F0000EE5
:104A1000686F000E696F000E6A6F000E6B6F800E7C
:104A20006A137F0E6B1378516B1368C068F069C00E
:104A300069F06AC06AF06BC06BF062EF26F07F51DC
:104A4000D8A425EF25F027EF25F031EF25F0000E53
:104A5000686F000E696F000E6A6F000E6B6F62EF79
:104A600026F080517FC070F0716B705F000E715B3B
:104A70007F0E7025796F000E71217A6F68C074F017
:104A800069C075F06AC076F06BC077F0000E686F91
:104A9000000E696F000E6A6F000E6B6F000E7B6F69
:104AA000000E7C6F000E7D6F000E7E6F000E806F1B
:104AB00092EF25F08051D8B460EF25F062EF25F039
:104AC00079EF25F0D8907437753776377737D890E7
:104AD000683769376A376B377EAF71EF25F073EF50
:104AE00025F074EF25F06881D8907B377C377D37CF
:104AF0007E376C51745D6D5175596E5176596F5199
:104B00007759D8A086EF25F088EF25F091EF25F0B2
:104B10007E8D6C51745F6D51755B6E51765B6F511C
:104B2000775B802B190E806598EF25F09AEF25F0C2
:104B30005AEF25F07451751176117711D8B4A3EF9F
:104B400025F0A5EF25F0BDEF25F07B81BDEF25F029
:104B5000D890683769376A376B377EAFB2EF25F088
:104B6000B4EF25F0B5EF25F06881D8907B377C371E
:104B70007D377E377907D8A07A076AAFC2EF25F074
:104B8000C4EF25F0A8EF25F0000E806F7EAFCBEFCD
:104B900025F0CDEF25F0F1EF25F0FF0E7B15706FBE
:104BA000FF0E7C15716FFF0E7D15726F7F0E7E15E7
:104BB000736F7051711172117311D8B4E2EF25F057
:104BC000E4EF25F0E8EF25F0010E806FF1EF25F01E
:104BD00068A1EDEF25F0EFEF25F0F1EF25F0E4EF20
:104BE00025F08051D8B4F7EF25F0F9EF25F01DEF4F
:104BF00026F0010E6827000E69236A236B236BA140
:104C000004EF26F006EF26F01DEF26F068C070F0E6
:104C100069C071F06AC072F06BC073F073357333A2
:104C200072337133703370C068F071C069F072C054
:104C30006AF073C06BF0794B7A2B7ABF28EF26F0BD
:104C40007A5108E17929D8A028EF26F02AEF26F03A
:104C500035EF26F0000E7A6F7969000E686F000E4E
:104C6000696F000E6A6F000E6B6F7ABF42EF26F01D
:104C70007A5106E17905D8B040EF26F042EF26F0F0
:104C800050EF26F0000E7A6F000E796F000E686FFD
:104C9000000E696F000E6A6F000E6B6F000E786F6A
:104CA00079C07FF07FA157EF26F059EF26F05CEF37
:104CB00026F06A8F5DEF26F06A9FD8907F316B6F88
:104CC00013EF25F01200020E0D6EAD0E0E6E300EBB
:104CD0003DEC37F0000EC46E000EC36EC280C2827F
:104CE000C2B275EF26F077EF26F070EF26F0C450D1
:104CF0000001FB6FC3500101726FFBC073F1000E26
:104D00001F6E000E206EA00E216E400E226E72C12C
:104D10000DF073C10EF00F6A106A000EC6EC2EF093
:104D20000DC01BF00EC01CF00FC01DF010C01EF017
:104D300080EC22F01BC068F01CC069F01DC06AF056
:104D40001EC06BF0000E00016C6FC00E6D6F7F0E09
:104D50006E6F440E6F6F95EC24F0000E0001FB6F38
:104D6000030EFC6FD89001017035D96E7135DA6E83
:104D7000D890D936DA360001FB51D926FC51DA2217
:104D800068C0DEFF69C0DEFF6AC0DEFF6BC0DEFF09
:104D9000810E0101C36F010EC46F810EC56F080E35
:104DA000C66F000E0001FB6F030EFC6FD89001016F
:104DB0007035D96E7135DA6ED890D936DA36000191
:104DC000FB51D926FC51DA22DECFC7F1DECFC8F184
:104DD000DECFC9F1DECFCAF111EC35F0810E126ED3
:104DE000010E136E2FEC34F0010E126E000EA5ECC6
:104DF00034F0810E0101C36F010EC46FA90EC56F9F
:104E0000080EC66F000E0001FB6F010EFC6FD890FC
:104E100001017035D96E7135DA6ED890D936DA362F
:104E20000001FB51D926FC51DA22DECFC7F1DECFDB
:104E3000C8F1DECFC9F1DECFCAF111EC35F0810E39
:104E4000126E010E136E2FEC34F03D0E0001FC6F5C
:104E5000E10EFB6F3F0EE82EFED7FB2FFCD7FC2F99
:104E6000FAD700D0010EC7EC36F001017551762556
:104E7000756F75C10EF0110E33EC37F00101704BF8
:104E8000712B000E736F000E726F820E7519D8A40D
:104E90004CEF27F04EEF27F024EF28F01E0E756F31
:104EA00075C10EF0110E33EC37F0000E0001FE6FED
:104EB000000EFD6F68C134F069C135F06AC136F08B
:104EC0006BC137F0000EFB6F010EFC6FD890FD3503
:104ED000D96EFE35DA6ED890D936DA36FB51D9263E
:104EE000FC51DA22DECF38F0DECF39F0DECF3AF0F7
:104EF000DECF3BF0C9EC30F0D8B081EF27F083EF84
:104F000027F0B4EF27F0000E0001FB6F010EFC6FDD
:104F1000D890FD35D96EFE35DA6ED890D936DA36AE
:104F2000FB51D926FC51DA22DECF68F1DECF69F1E0
:104F3000DECF6AF1DECF6BF1000EFB6F030EFC6F6C
:104F4000D890FD35D96EFE35DA6ED890D936DA367E
:104F5000FB51D926FC51DA22DECF6CF1DECF6DF1A8
:104F6000DECF6EF1DECF6FF10001FD4BFE2BFEBFF9
:104F7000C3EF27F0FE5109E1140EFD5DD8A0C3EF89
:104F800027F0C5EF27F05AEF27F0770E0101C36F26
:104F9000010EC46F710EC56F080EC66F6CC1C7F1EC
:104FA0006DC1C8F16EC1C9F16FC1CAF111EC35F024
:104FB000770E126E010E136E2FEC34F0010E126E8E
:104FC000000EA5EC34F0770E0101C36F010EC46F23
:104FD0009C0EC56F080EC66F68C1C7F169C1C8F1E4
:104FE0006AC1C9F16BC1CAF111EC35F0770E126ECE
:104FF000010E136E2FEC34F0150E0001FC6F4B0EFA
:10500000FB6FBE0EE82EFED7FB2FFCD7FC2FFAD786
:1050100000F0010EC7EC36F0BB0E126E080E136ED8
:105020002FEC34F0150E0001FC6F4B0EFB6FBE0E23
:10503000E82EFED7FB2FFCD7FC2FFAD700F0010E8D
:10504000C7EC36F0CAEC31F01200B9C1D9FFBAC1D1
:10505000DAFFDECFF6FFDDCFF7FF0800F550250AB7
:10506000D8A435EF28F037EF28F09CEF29F0B9C12C
:10507000D9FFBAC1DAFFDE2A000EDD22000E4B6E28
:10508000000E4A6E4AC074F14C684D68B9C1D9FF30
:10509000BAC1DAFFDECFF6FFDDCFF7FF0800F5502B
:1050A0002E0AD8A456EF28F058EF28F0C6EF28F0C3
:1050B000000E4D6E000E4C6EB9C1D9FFBAC1DAFFB9
:1050C000DE2A000EDD22B9C1D9FFBAC1DAFFDECF78
:1050D000F6FFDDCFF7FF0800F5502A0AD8A473EFDA
:1050E00028F075EF28F092EF28F0B9C1D9FFBAC1C6
:1050F000DAFFDE2A000EDD22BBC1D9FFBCC1DAFF18
:10510000DFCFDEF0020EDE26DFCFDFF0000EDD2285
:10511000DEC0D9FFDFC0DAFFDECF4CF0DDCF4DF0CF
:10512000C6EF28F0B9C1D9FFBAC1DAFFDECF13F05C
:10513000DDCF14F0A0EC2FF013C04CF014C04DF0F4
:10514000A9EF28F0B9C1D9FFBAC1DAFFDE2A000EF3
:10515000DD22B9C1D9FFBAC1DAFFDECFF6FFDDCF5C
:10516000F7FF0800F5CFDEF0D00E0001DE25DF6F7F
:10517000E06BFF0EE023E05109E10A0EDF5DD8A0ED
:10518000C4EF28F0C6EF28F0A2EF28F0B9C1D9FF8C
:10519000BAC1DAFFDECFEAF0DDCFEBF0EAC0F6FF0E
:1051A000EBC0F7FF0800F5CFE9F0E3EF28F0EA4B9A
:1051B000EB2BFDEF28F06C0EE96FFDEF28F0000EF1
:1051C000E96FFDEF28F00001E951DE6FDF6BDF5181
:1051D000000AD8B4EEEF28F0DFEF28F0DE514C0AD9
:1051E000D8B4D7EF28F02A0AD8B4DBEF28F00A0A9F
:1051F000D8B4D7EF28F0DFEF28F0EAC0F6FFEBC015
:10520000F7FF0800F550660AD8A409EF29F00BEF64
:1052100029F093EF29F041EF29F0BBC1D9FFBCC1C0
:10522000DAFFDFCFDEF0040EDE26DFCFDFF0000E88
:10523000DD22DEC0D9FFDFC0DAFFDECFE1F0DECF56
:10524000E2F0DECFE3F0DECFE4F056EF29F0BBC1B1
:10525000D9FFBCC1DAFFDFCFDEF0040EDE26DFCFE0
:10526000DFF0000EDD22DEC0D9FFDFC0DAFFDECFC7
:10527000E1F0DECFE2F0DECFE3F0DECFE4F056EF98
:1052800029F0E951DE6FDF6BDF51000AD8B44BEF34
:1052900029F056EF29F0DE514C0AD8B427EF29F057
:1052A000200AD8B40DEF29F056EF29F0010EEA25B7
:1052B000DE6F000EEB21DF6FB9C1D9FFBAC1DAFF93
:1052C000DEC0DEFFDFC0DDFF7DEF29F0B7C1D5F026
:1052D000B8C1D6F0E1C0D7F0E2C0D8F0E3C0D9F051
:1052E000E4C0DAF0EAC0F6FFEBC0F7FF0800F5CF44
:1052F000DBF083EC09F0B0EF29F0EAC0F6FFEBC079
:10530000F7FF0800F550DE6FDF6BDF51000AD8B4FD
:105310008CEF29F093EF29F0DE51660AD8B466EFDE
:1053200029F093EF29F0B9C1D9FFBAC1DAFFDE2A1B
:10533000000EDD22B0EF29F0B9C1D9FFBAC1DAFF02
:10534000DECFF6FFDDCFF7FF0800F5500D6E0E6AD9
:10535000B7C10FF0B8C110F048EC32F093EF29F06C
:10536000120085C01BF086C01CF087C01DF088C0ED
:105370001EF085C01FF086C020F087C021F088C0D5
:1053800022F080EC22F01BC0A1F01CC0A2F01DC0D6
:10539000A3F01EC0A4F0A1C01BF0A2C01CF0A3C0CB
:1053A0001DF0A4C01EF0A1C01FF0A2C020F0A3C039
:1053B00021F0A4C022F080EC22F01BC08DF01CC0B4
:1053C0008EF01DC08FF01EC090F03C0E1F6E6C0E54
:1053D000206E360E216E360E226EA1C01BF0A2C0CA
:1053E0001CF0A3C01DF0A4C01EF080EC22F01BC076
:1053F00034F01CC035F01DC036F01EC037F0CF0EA3
:10540000386E070E396E500E3A6EB90E3B6ED8EC00
:105410001DF034C089F035C08AF036C08BF037C03B
:105420008CF0A1C01BF0A2C01CF0A3C01DF0A4C052
:105430001EF085C01FF086C020F087C021F088C014
:1054400022F080EC22F01BC09DF01CC09EF01DC01D
:105450009FF01EC0A0F0AB0E386EAA0E396E2A0E59
:105460003A6EBE0E3B6E840E1F6E880E206E080EC6
:10547000216E3C0E226EA1C01BF0A2C01CF0A3C086
:105480001DF0A4C01EF080EC22F01BC034F01CC044
:1054900035F01DC036F01EC037F0D8EC1DF034C01A
:1054A00091F035C092F036C093F037C094F08DC0C3
:1054B0001FF08EC020F08FC021F090C022F09DC060
:1054C0001BF09EC01CF09FC01DF0A0C01EF080EC21
:1054D00022F01BC095F01CC096F01DC097F01EC0B6
:1054E00098F085C038F086C039F087C03AF088C09F
:1054F0003BF09DC01FF09EC020F09FC021F0A0C0D7
:1055000022F091C01BF092C01CF093C01DF094C01B
:105510001EF080EC22F01BC034F01CC035F01DC022
:1055200036F01EC037F0D8EC1DF034C099F035C00D
:105530009AF036C09BF037C09CF099C034F09AC006
:1055400035F09BC036F09CC037F089C01FF08AC090
:1055500020F08BC021F08CC022F095C01BF096C0CB
:105560001CF097C01DF098C01EF080EC22F01BC00C
:1055700038F01CC039F01DC03AF01EC03BF0D8EC2A
:105580001DF034C085F035C086F036C087F037C0D6
:1055900088F0120050C191F051C192F052C193F0C5
:1055A00053C194F081C091F082C092F083C093F017
:1055B00084C094F0810E0001856FFF0E866F91C04C
:1055C00087F092C088F093C089F094C08AF0180EDA
:1055D000EFEF2AF0D8908A33893388338733E82E67
:1055E000EAEF2AF0875185258F6F000E8621906F94
:1055F00090BF04EF2BF0905109E1170E8F5DD8A0FA
:1056000004EF2BF006EF2BF010EF2BF081C081F0B0
:1056100082C082F083C083F084C084F0D4EF2BF08A
:1056200090BF15EF2BF017EF2BF088EF2BF08FC00A
:1056300085F0FF0E866FFF0E876F7F0E886F000E5E
:10564000896F856726EF2BF02EEF2BF08935893394
:10565000883387338633852F21EF2BF086C08BF07C
:1056600087C08CF088C08DF089C08EF000018B510E
:105670009115856F8C519215866F8D519315876F9B
:105680008E519415886F8551861187118811D8A481
:105690004CEF2BF04EEF2BF050EF2BF006EF2BF0F2
:1056A00091C085F092C086F093C087F094C088F0D6
:1056B000200E60EF2BF0D890883387338633853304
:1056C000E82E5BEF2BF08551861187118811D8B435
:1056D0006CEF2BF06EEF2BF076EF2BF08B519127C8
:1056E0008C5192238D5193238E5194238B1D856F62
:1056F0008C1D866F8D1D876F8E1D886F855191174C
:10570000865192178751931788519417CCEF2BF03D
:1057100091C085F092C086F093C087F094C088F065
:10572000200E98EF2BF0D89088338733863385335B
:10573000E82E93EF2BF08551861187118811D8A49C
:10574000A4EF2BF0A6EF2BF0B0EF2BF0000E916F33
:10575000000E926F000E936F000E946FCCEF2BF043
:10576000D8909135856F9235866F9335876F9435D4
:10577000886F8551861187118811D8B4C2EF2BF03C
:10578000C4EF2BF0CCEF2BF0000E916F000E926F58
:10579000800E936FBF0E946F91C081F092C082F023
:1057A00093C083F094C084F0120015C00DF016C0B1
:1057B0000EF0000E106E020E0F6EADEC32F00DC04A
:1057C0002AF00EC02BF0000E296E010E286EC3EFDA
:1057D0002CF02A50285C2950800A1B6E2B50800A1E
:1057E0001B58D8B0F6EF2BF0F8EF2BF088EF2CF029
:1057F000D8902A34D96E2B34DA6ED890D936DA366E
:105800001750D9261850DA22DECF1EF0DECF1FF057
:10581000DECF20F0DECF21F0D8902A34D96E2B34A1
:10582000DA6ED890D936DA361950D9261A50DA22DB
:10583000DECF22F0DECF23F0DECF24F0DECF25F066
:10584000D8902834D96E2934DA6ED890D936DA3621
:105850001750D9261850DA22D8902A34E16E2B340A
:10586000E26ED890E136E2361750E1261850E22277
:10587000DECFE6FFDECFE6FFDECFE6FFDECFE6FFE0
:10588000D8902834D96E2934DA6ED890D936DA36E1
:105890001950D9261A50DA22D8902A34E16E2B34C6
:1058A000E26ED890E136E2361950E1261A50E22233
:1058B000DECFE6FFDECFE6FFDECFE6FFDECFE6FFA0
:1058C000D8902834D96E2934DA6ED890D936DA36A1
:1058D0001750D9261850DA221EC0DEFF1FC0DEFF87
:1058E00020C0DEFF21C0DEFFD8902834D96E2934D5
:1058F000DA6ED890D936DA361950D9261A50DA220B
:1059000022C0DEFF23C0DEFF24C0DEFF25C0DEFF95
:1059100015C00DF016C00EF0000E106E020E0F6EC8
:10592000ADEC32F00DC026F00EC027F0ACEF2CF03D
:1059300026502A5C2A6E27502B582B6E26C00DF05D
:1059400027C00EF0000E106E020E0F6EADEC32F09E
:105950000DC026F00EC027F026502A5C2B50800A7E
:105960001B6E2750800A1B58D8B0B9EF2CF0BBEF44
:105970002CF098EF2CF026502A242A6E27502B204A
:105980002B6E284A292AFE0E15241B6EFF0E1620A8
:105990001C6E28501B5C1C50800A1D6E2950800A0A
:1059A0001D58D8B0D6EF2CF0D8EF2CF0E9EF2BF043
:1059B000120060C01BF061C01CF062C01DF063C02B
:1059C0001EF060C01FF061C020F062C021F063C013
:1059D00022F080EC22F01BC078F01CC079F01DC0D2
:1059E0007AF01EC07BF078C01BF079C01CF07AC042
:1059F0001DF07BC01EF078C01FF079C020F07AC087
:105A000021F07BC022F080EC22F01BC074F01CC09F
:105A100075F01DC076F01EC077F0170E1F6E9A0E3F
:105A2000206ECC0E216E370E226E78C01BF079C02E
:105A30001CF07AC01DF07BC01EF080EC22F01BC071
:105A400034F01CC035F01DC036F01EC037F03F0EDC
:105A5000386E040E396EB60E3A6EBA0E3B6ED8EC46
:105A60001DF034C064F035C065F036C066F037C054
:105A700067F0000E386E000E396E800E3A6E3F0EE3
:105A80003B6E000E1F6E000E206E000E216EBF0ECC
:105A9000226E78C01BF079C01CF07AC01DF07BC06C
:105AA0001EF080EC22F01BC034F01CC035F01DC08D
:105AB00036F01EC037F0D8EC1DF034C068F035C0A9
:105AC00069F036C06AF037C06BF078C01FF079C05B
:105AD00020F07AC021F07BC022F074C01BF075C0AA
:105AE0001CF076C01DF077C01EF080EC22F01BC0C9
:105AF0006CF01CC06DF01DC06EF01EC06FF09F0EEC
:105B00001F6EAA0E206E2A0E216E3D0E226E74C0EC
:105B10001BF075C01CF076C01DF077C01EF080EC45
:105B200022F01BC038F01CC039F01DC03AF01EC076
:105B30003BF068C034F069C035F06AC036F06BC025
:105B400037F0D8EC1DF034C070F035C071F036C0BD
:105B500072F037C073F070C034F071C035F072C0AD
:105B600036F073C037F064C01FF065C020F066C027
:105B700021F067C022F06CC01BF06DC01CF06EC03D
:105B80001DF06FC01EF080EC22F01BC038F01CC06E
:105B900039F01DC03AF01EC03BF0D8EC1DF034C007
:105BA00060F035C061F036C062F037C063F01200BB
:105BB000000E0001DE6F000EDD6F000EDF6F1BEFC9
:105BC0002EF0DF51040DF3CFD9F0F4CFDAF0D95134
:105BD000D725D96EDA51D821DA6EDECF38F0DECF94
:105BE00039F0DECF3AF0DECF3BF0DDC00DF0DEC0A5
:105BF0000EF0000E0EBEFF0E0F6E106E010EC6EC04
:105C00002EF00DC034F00EC035F00FC036F010C0CD
:105C100037F0D8EC1DF034C0CDF035C0CEF036C032
:105C2000CFF037C0D0F045EC30F0CDC0DDF0CEC0C5
:105C3000DEF00001DF2BDF51D96FDA6BD551D95D72
:105C4000DA51800ADB6FD651800ADB59D8A02BEFDE
:105C50002EF02DEF2EF0E1EF2DF0DDC00DF0DEC0C7
:105C60000EF0D5C00FF0D6C010F0ADEC32F00DC084
:105C7000DDF00EC0DEF0000E0001DF6FB3EF2EF09E
:105C8000DF51040DF3CFD9F0F4CFDAF0D951D72595
:105C9000D96EDA51D821DA6EDECF60F0DECF61F056
:105CA000DECF62F0DECF63F0DDC00DF0DEC00EF0BF
:105CB000000E0EBEFF0E0F6E106E010EC6EC2EF023
:105CC0000DC064F00EC065F00FC066F010C067F044
:105CD000BBEC35F00001DF51040DF3CFDBF0F4CF66
:105CE000DCF0DB51D725D96EDC51D821DA6E60C0EB
:105CF000DEFF61C0DEFF62C0DEFF63C0DEFFDF519A
:105D0000040DF3CFD9F0F4CFDAF0D951D725D96EFD
:105D1000DA51D821DA6EDECF68F0DECF69F0DECF5F
:105D20006AF0DECF6BF0000E6C6F000E6D6F000E30
:105D30006E6F440E6F6F95EC24F00001DF51040D7F
:105D4000F3CFDBF0F4CFDCF0DB51D725D96EDC519B
:105D5000D821DA6E68C0DEFF69C0DEFF6AC0DEFFF0
:105D60006BC0DEFFDF2BDF51D96FDA6BD551D95D08
:105D7000DA51800ADB6FD651800ADB59D8A0C3EF15
:105D80002EF0C5EF2EF040EF2EF01200156E1550DC
:105D9000D8B4CDEF2EF0CFEF2EF0F1EF2EF010BEF5
:105DA000D6EF2EF0D4EF2EF0F1EF2EF00DC011F063
:105DB0000EC012F00FC013F010C014F0111E121E0E
:105DC000131E141E112A000E12221322142211C0B7
:105DD00017F012C018F013C019F014C01AF0F9EF40
:105DE0002EF00DC017F00EC018F00FC019F010C043
:105DF0001AF00D500E100F101010D8A402EF2FF053
:105E000004EF2FF00EEF2FF0000E0D6E000E0E6E51
:105E1000000E0F6E000E106E9FEF2FF0960E166E96
:105E200018EF2FF0162AD8901A321932183217327A
:105E3000000E1714116E000E1814126E000E1914B5
:105E4000136EFE0E1A14146E11501210131014104B
:105E5000D8A42DEF2FF02FEF2FF012EF2FF03DEF02
:105E60002FF0162A010E1726000E182219221A22C8
:105E7000D8901A32193218321732000E1714116ED8
:105E8000000E1814126E000E1914136EFF0E1A1461
:105E9000146E1150121013101410D8A452EF2FF0DA
:105EA00054EF2FF031EF2FF05CEF2FF01606D89063
:105EB0001736183619361A3619BE61EF2FF063EF10
:105EC0002FF06BEF2FF0020E166069EF2FF06BEFE3
:105ED0002FF056EF2FF016B070EF2FF072EF2FF07B
:105EE00073EF2FF0199ED890163216C011F0126A77
:105EF000136A146A11C014F0136A126A116A1150FD
:105F00001712125018121350191214501A12155059
:105F1000D8B48DEF2FF08FEF2FF097EF2FF010BE4A
:105F200096EF2FF094EF2FF097EF2FF01A8E17C007
:105F30000DF018C00EF019C00FF01AC010F01200CA
:105F4000000E1B6E000E1A6E000E196E000E186EFB
:105F5000ACEF2FF0134A142A13C0F6FF14C0F7FF5A
:105F60000800F550200AD8B4B8EF2FF0BAEF2FF0A0
:105F7000AAEF2FF013C0F6FF14C0F7FF0800F5CF0B
:105F800015F0F70E1524166E176AFF0E172217501C
:105F900009E1050E165CD8A0D0EF2FF0D2EF2FF05C
:105FA000AAEF2FF0DCEF2FF0000E196E010E186E25
:105FB000134A142A11EF30F013C0F6FF14C0F7FF94
:105FC0000800F550156E166A1650000AD8B4EBEFAB
:105FD0002FF011EF30F015502B0AD8B4D8EF2FF076
:105FE000060AD8B4D4EF2FF011EF30F01AC00DF03C
:105FF0001BC00EF0000E106E0A0E0F6EF4EC36F0A1
:1060000013C0F6FF14C0F7FF0800F5500D5E000E38
:106010000E5A300E0D241A6E000E0E201B6ED8EF95
:106020002FF013C0F6FF14C0F7FF0800F5CF15F0EE
:10603000D00E1524166E176AFF0E1722175009E1AD
:106040000A0E165CD8A027EF30F029EF30F0F6EFFB
:106050002FF018501910D8A430EF30F032EF30F094
:1060600040EF30F01AC015F01BC016F0151E161EBA
:10607000154A162A15C013F016C014F044EF30F07C
:106080001AC013F01BC014F012000001CF35D03538
:10609000456E4550D8A44FEF30F051EF30F05BEF34
:1060A00030F0000ECD6F000ECE6F000ECF6F000EE1
:1060B000D06FC8EF30F0CDC0D1F0CEC0D2F0CFC09D
:1060C000D3F0D0C0D4F0200E6BEF30F0D890D433A2
:1060D000D333D233D133E82E66EF30F0D151446E52
:1060E000CF8FFF0ECD17FF0ECE17FF0ECF17000E6E
:1060F000D017960E455E45BE82EF30F080EF30F04F
:1061000098EF30F04550800A970FD8B08AEF30F002
:106110008CEF30F08EEF30F051EF30F0D890D0337C
:10612000CF33CE33CD33453E8EEF30F0B0EF30F08D
:106130001F0E45649EEF30F0A0EF30F0A8EF30F076
:1061400051EF30F0D890CD37CE37CF37D037450626
:106150004550D8A4AEEF30F0B0EF30F0A2EF30F001
:106160004450D8B4B6EF30F0B8EF30F0C0EF30F0B4
:10617000D01FCF1FCE1FCD6D000ECE23CF23D02337
:10618000CDC0CDF0CEC0CEF0CFC0CFF0D0C0D0F0DB
:106190001200000E34143C6E000E35143D6E800E5D
:1061A00036143E6E7F0E37143F6E3C503D103E104D
:1061B0003F10D8A4DEEF30F0E0EF30F0E8EF30F041
:1061C000000E346E000E356E000E366E000E376E09
:1061D000000E38143C6E000E39143D6E800E3A14D9
:1061E0003E6E7F0E3B143F6E3C503D103E103F1004
:1061F000D8A4FDEF30F0FFEF30F007EF31F0000EE4
:10620000386E000E396E000E3A6E000E3B6E37AEE1
:106210000CEF31F00EEF31F017EF31F0346C351E2A
:10622000D8B0352A361ED8B0362A800E37563BAE47
:106230001CEF31F01EEF31F027EF31F0386C391ED2
:10624000D8B0392A3A1ED8B03A2A800E3B56000EF2
:10625000341A000E351A000E361A800E371A000E48
:10626000381A000E391A000E3A1A800E3B1A3850AE
:10627000345C395035583A5036583B503758D8B0BE
:1062800044EF31F046EF31F049EF31F0D8904AEF6A
:1062900031F0D880120054C117F055C118F056C122
:1062A00019F057C11AF00DC017F00EC018F00FC04A
:1062B00019F010C01AF017C011F018C012F019C070
:1062C00013F01AC014F0180E6BEF31F0D89014329E
